:100000000C9471000C948E000C948E000C948E0055
:100010000C948E000C948E000C948E000C948E0028
:100020000C948E000C948E000C948E000C94C90DD0
:100030000C948E000C948E000C948E000C948E0008
:100040000C948E000C948E000C948E000C948E00F8
:100050000C948E000C948E000C948E000C948E00E8
:100060000C948E000C948E000C948E000C94EA0F6D
:100070000C948E000C948E000C948E000C948E00C8
:100080000C948E000C94790F0C948E000C948E00BE
:100090000C948E000C948E000C948E000C948E00A8
:1000A0000C948E000C948E000C9490000C948E0096
:1000B0000C948E00084AD73B3BCE016E84BCBFFD3A
:1000C000C12F3D6C74319ABD56833DDA3D00C77F28
:1000D00011BED9E4BB4C3E916BAAAABE00000080C1
:1000E0003F0011241FBECFEFD8E0DEBFCDBF12E02E
:1000F000A0E0B1E0EAECFBE202C005900D92A83F5F
:10010000B107D9F726E0A8EFB2E001C01D92A23DE9
:10011000B207E1F70E9441120C94E3150C94000021
:100120001F920F9200905F000F9211242F933F9324
:100130004F935F936F937F938F939F93AF93BF93EF
:10014000EF93FF93CF93DF93CDB7DEB78091F802A3
:100150009091F90201969093F9028093F8028091B0
:10016000F8029091F9029C0140E050E08091FD027C
:10017000882F90E0BC01CB01880F991FBC01CB01F7
:10018000880F991F880F991F880F991F861B970B3F
:100190008A5C9A4FFC0180819181A281B3812817EA
:1001A00039074A075B07C4F080EA90E020EA30E0B4
:1001B000F90120812F77FC01208382E790E022E77C
:1001C00030E0F90120812D7FFC01208381E08093C4
:1001D000FC0283E0809300010000DF91CF91FF914A
:1001E000EF91BF91AF919F918F917F916F915F91AF
:1001F0004F913F912F910F9000925F000F901F90B1
:100200001895CF93DF93CDB7DEB7A6C080910001DC
:10021000882F90E08130910559F0823091050CF4DF
:100220009BC082309105B9F1039709F470C094C066
:100230001092F9021092F80284EA90E0FC01118217
:1002400010828091FD02882F90E09C01C901880FE7
:10025000991F9C01C901880F991F880F991F880F4A
:10026000991F821B930B9C012A5C3A4F88EE9DEFED
:10027000A0E0B0E0F90180839183A283B38380EA98
:1002800090E020EA30E0F90120812068FC01208321
:100290001092000161C08BE290E02BE230E0F901A6
:1002A0002081277FFC0120831092F9021092F8022E
:1002B00084EA90E0FC01118210828091FD02882F77
:1002C00090E09C01C901880F991F9C01C901880F0A
:1002D000991F880F991F880F991F821B930B9C01F0
:1002E0002A5C3A4F80E395E7A0E0B0E0F901808313
:1002F0009183A283B3838DE690E02DE630E0F9018F
:1003000020812F77FC0120831092000125C082E715
:1003100090E022E730E0F90120812D7FFC0120836D
:1003200080EA90E020EA30E0F90120812F77FC019B
:1003300020838DE690E02DE630E0F90120812068F1
:10034000FC01208381E08093FB021092FA0210925C
:10035000F9021092F80200008091FB02882309F450
:1003600055CF0000DF91CF910895CF93DF93CDB7A4
:10037000DEB78091FA02882F90E08130910561F01C
:10038000823091050CF47DC08230910509F44EC095
:10039000039709F46CC076C01092F9021092F8022B
:1003A00084EA90E0FC01118210828091FD02882F86
:1003B00090E09C01C901880F991F9C01C901880F19
:1003C000991F880F991F880F991F821B930B865CBA
:1003D0009A4FFC0180819181019751F48BE290E06A
:1003E0002BE230E0F9012081277FFC01208309C046
:1003F0008BE290E02BE230E0F90120812860FC01E3
:1004000020831092FA0282E790E022E730E0F901BF
:1004100020812260FC01208380EA90E020EA30E025
:10042000F90120812068FC0120832CC08CE290E03F
:10043000FC018081882F90E081709927892B69F0D9
:1004400081E08093FA0280EA90E020EA30E0F9014E
:1004500020812068FC01208315C080EA90E020EA1A
:1004600030E0F90120812F77FC0120830BC08BE263
:1004700090E02BE230E0F90120812064FC01208330
:1004800001C000000000DF91CF910895CF93DF936A
:10049000CDB7DEB784E290E024E230E0F9012081BC
:1004A0002360FC0120838DE290E02DE230E0F90131
:1004B00020812B7FFC0120838AE290E02AE230E059
:1004C000F90120812061FC01208385E290E025E292
:1004D00030E0F90120812160FC0120838BE290E073
:1004E0002BE230E0F90120812F7EFC0120838EE297
:1004F00090E02EE230E0F90120812460FC012083AD
:1005000087E290E027E230E0F90120812360FC01DE
:10051000208388E290E028E230E0F90120812C7FFE
:10052000FC01208380E890E022E8FC01208381E840
:1005300090E02AE1FC0120838FE690E02FE630E096
:10054000F90120812260FC0120838BE390E02BE302
:1005500030E0F90120812860FC01208383E790E0EE
:1005600023E730E0F90120812460FC01208388E644
:1005700090E028E630E0F90120812860FC0120832A
:1005800086E890E02FEC37E0FC013183208388E897
:1005900090E027EE33E0FC01318320837894000063
:1005A000DF91CF910895CF93DF93CDB7DEB78DE282
:1005B00090E02DE230E0F90120812D7FFC012083C5
:1005C0008AE290E02AE230E0F90120812560FC0116
:1005D00020838AE290E02AE230E0F9012081206263
:1005E000FC0120838EE290E02EE230E0F9012081D0
:1005F0002260FC0120838BE290E02BE230E0F901E5
:1006000020812460FC0120838BE290E02BE230E02B
:10061000F90120812F7DFC01208387E290E027E211
:1006200030E0F90120812C60FC01208388E290E019
:1006300028E230E0F9012081237FFC01208380E95A
:1006400090E022E8FC01208381E990E02AE1FC01AE
:10065000208381E790E021E730E0F90120812260EA
:10066000FC0120838BE390E02BE330E0F901208153
:100670002860FC01208383E790E023E730E0F90164
:1006800020812260FC01208388E690E028E630E0AB
:10069000F90120812860FC01208386E990E02FE5A4
:1006A00034E0FC013183208388E990E027EE33E0D9
:1006B000FC013183208378940000DF91CF9108956D
:1006C000CF93DF93CDB7DEB78AE290E02AE230E045
:1006D000F90120812A60FC0120838AE290E02AE26D
:1006E00030E0F90120812064FC0120838DE290E05C
:1006F0002DE230E0F90120812E7FFC0120838EE283
:1007000090E02EE230E0F90120812160FC0120839D
:100710008BE290E02BE230E0F90120812860FC01BF
:1007200020838BE290E02BE230E0F90120812F7BE7
:10073000FC01208387E290E027E230E0F90120818C
:100740002066FC01208388E290E028E230E0F90195
:1007500020812F7BFC01208388E290E028E230E0BA
:10076000F90120812062FC01208380EA90E022E8E8
:10077000FC01208381EA90E02AE1FC01208382E7EA
:1007800090E022E730E0F90120812260FC01208323
:1007900086EA90E028EE33E0FC013183208388EA8A
:1007A00090E024EF31E0FC01318320838BE390E083
:1007B0002BE330E0F90120812860FC01208383E7EE
:1007C00090E023E730E0F90120812160FC012083E3
:1007D00088E690E028E630E0F90120812860FC01FD
:1007E000208378940000DF91CF910895CF93DF9319
:1007F00000D000D0CDB7DEB769837A838B839C832A
:1008000020E030E044EB53E469817A818B819C8164
:100810000E948813DC01CB0120E030E344EB55E477
:10082000BC01CD010E941715DC01CB01BC01CD013B
:100830000E94FA13DC01CB010F900F900F900F90E4
:10084000DF91CF910895CF93DF9300D000D0CDB743
:10085000DEB769837A838B839C8320E030E044EBAE
:1008600053E469817A818B819C810E948813DC0129
:10087000CB0120E030EA4EE156E4BC01CD010E94FC
:100880001715DC01CB01BC01CD010E94FA13DC017C
:10089000CB010F900F900F900F90DF91CF910895A3
:1008A000CF93DF9300D000D0CDB7DEB769837A83D2
:1008B0008B839C8320E030E048E751E469817A81B2
:1008C0008B819C810E948813DC01CB0120E030E603
:1008D0004AE657E4BC01CD010E941715DC01CB01AB
:1008E000BC01CD010E94FA13DC01CB010F900F90E7
:1008F0000F900F90DF91CF9108950F931F93CF9397
:10090000DF9300D000D0CDB7DEB79C838B831A82F3
:1009100019823EC089819A81880F991F9C01220FFC
:10092000331F220F331F220F331FA901481B590BFE
:10093000CA012B813C818901080F191F89819A8185
:10094000880F991F9C01220F331F220F331F220F84
:10095000331FF901E81BF90BCF012B813C81820F7A
:10096000931FFC0180819181A281B381BC01CD01E3
:100970000E94F603092E000CAA0BBB0BF80180871E
:100980009187A287B38789819A8101969A83898307
:1009900089819A81880F991F9C01220F331F220F92
:1009A000331F220F331FA901481B590BCA012B818A
:1009B0003C81820F931FFC0180819181A281B381D0
:1009C00020E030E040E85FEBBC01CD010E948313E2
:1009D000882309F09FCF89819A8101970F900F900A
:1009E0000F900F90DF91CF911F910F9108950F936A
:1009F0001F93CF93DF9300D000D0CDB7DEB79C8399
:100A00008B831A8219823EC089819A81880F991F2F
:100A10009C01220F331F220F331F220F331FA90106
:100A2000481B590BCA012B813C818901080F191FF2
:100A300089819A81880F991F9C01220F331F220FF1
:100A4000331F220F331FF901E81BF90BCF012B8154
:100A50003C81820F931FFC0180819181A281B3812F
:100A6000BC01CD010E942304092E000CAA0BBB0B74
:100A7000F80180879187A287B38789819A8101963F
:100A80009A83898389819A81880F991F9C01220FFB
:100A9000331F220F331F220F331FA901481B590B8D
:100AA000CA012B813C81820F931FFC0180819181BF
:100AB000A281B38120E030E040E85FEBBC01CD01D2
:100AC0000E948313882309F09FCF89819A8101971F
:100AD0000F900F900F900F90DF91CF911F910F917A
:100AE00008950F931F93CF93DF9300D000D0CDB71D
:100AF000DEB79C838B831A8219823EC089819A81DA
:100B0000880F991F9C01220F331F220F331F220FC2
:100B1000331FA901481B590BCA012B813C81890154
:100B2000080F191F89819A81880F991F9C01220F34
:100B3000331F220F331F220F331FF901E81BF90B5C
:100B4000CF012B813C81820F931FFC018481958111
:100B5000A681B781BC01CD010E945004092E000C72
:100B6000AA0BBB0BF80180879187A287B387898185
:100B70009A8101969A83898389819A81880F991F26
:100B80009C01220F331F220F331F220F331FA90195
:100B9000481B590BCA012B813C81820F931FFC011A
:100BA00084819581A681B78120E030E040E85FEB49
:100BB000BC01CD010E948313882309F09FCF898156
:100BC0009A8101970F900F900F900F90DF91CF9126
:100BD0001F910F910895AF92BF92CF92DF92EF9243
:100BE000FF920F931F93CF93DF93CDB7DEB7C95515
:100BF000D1090FB6F894DEBF0FBECDBFFE01E65B94
:100C0000FF4F91838083CE01845B9F4FFC01408323
:100C1000518362837383CE01805B9F4FFC0100830D
:100C2000118322833383CE018C5A9F4FFC01C082F3
:100C3000D182E282F382CE01885A9F4FFC01B182B9
:100C4000A082CE01875B9F4FFC011082CE01CD9622
:100C5000FC011082118212821382CE018F5B9F4FA2
:100C6000FC011082118212821382CE018B5B9F4F96
:100C7000FC011082118212821382CE018C5A9F4F86
:100C8000FC0180819181A281B38189839A83AB83A6
:100C9000BC839E012B5B3F4F89819A81AB81BC81D4
:100CA000F90180839183A283B383CE01845B9F4F3C
:100CB000FC012081318142815381FC01608171817D
:100CC000828193810E941715DC01CB016C017D01AB
:100CD000CE01805B9F4FFC01208131814281538195
:100CE000FC0160817181828193810E941715DC0172
:100CF000CB019C01AD01C701B6010E94A512DC0128
:100D0000CB018D839E83AF83B88720E932EC4EE11F
:100D100053E46D817E818F8198850E94A412DC014D
:100D2000CB0125EF38E24DE652E4BC01CD010E9433
:100D3000A412DC01CB012EE33AE042E453E4BC010F
:100D4000CD010E948813DC01CB0189879A87AB878C
:100D5000BC8789859A85AB85BC8520E030E040E87A
:100D60005FEBBC01CD010E943014DC01CB0120E01F
:100D700030E040E85FE3BC01CD010E944F14DC018C
:100D8000CB0189879A87AB87BC8729853A854B85B4
:100D90005C8569857A858B859C850E941715DC01A9
:100DA000CB019C01AD0160E070E080E89FE30E9410
:100DB000A412DC01CB019C01AD0160E070E0CB012D
:100DC0000E943014DC01CB01BC01CD010E948A15C8
:100DD000DC01CB018D879E87AF87B88BCE01885A07
:100DE0009F4FFC0180819181892B31F48D859E85F7
:100DF000AF85B889B05804C08D859E85AF85B88908
:100E0000898B9A8BAB8BBC8B29853A854B855C850E
:100E100089899A89AB89BC89BC01CD010E942413C0
:100E2000DC01CB018D8B9E8BAF8BB88F20E030E047
:100E300044E353E46D897E898F89988D0E9417154C
:100E4000DC01CB012BED3FE049E450E4BC01CD01D6
:100E50000E948813DC01CB019E012F5B3F4FF901FB
:100E600080839183A283B3832AE939E949E451E479
:100E700069857A858B859C850E941715DC01CB01DD
:100E800026E636E646EF50E4BC01CD010E94A512ED
:100E9000DC01CB01898F9A8FAB8FBC8F2AE939E9AE
:100EA00049E451E469897A898B899C890E941715E4
:100EB000DC01CB018D8F9E8FAF8FB8A3CE01805BFD
:100EC0009F4FFC012081318142815381698D7A8D50
:100ED0008B8D9C8D0E941715DC01CB016C017D016F
:100EE000CE01845B9F4FFC0120813181428153817F
:100EF0006D8D7E8D8F8D98A10E941715DC01CB0121
:100F00009C01AD01C701B6010E94A412DC01CB0116
:100F100089A39AA3ABA3BCA3CE01845B9F4FFC0122
:100F20002081318142815381698D7A8D8B8D9C8D99
:100F30000E941715DC01CB016C017D01CE01805BA5
:100F40009F4FFC0120813181428153816D8D7E8DC7
:100F50008F8D98A10E941715DC01CB019C01AD017A
:100F6000C701B6010E94A512DC01CB018DA39EA38F
:100F7000AFA3B8A785E99FEBA6EDB3E389A79AA72E
:100F8000ABA7BCA7898D9A8DAB8DBC8DBF7729A5EA
:100F90003AA54BA55CA5BC01CD010E948313882313
:100FA00034F58D8D9E8DAF8DB8A1BF7729A53AA55B
:100FB0004BA55CA5BC01CD010E9483138823BCF422
:100FC000CE01845B9F4FFC0120813181428153819E
:100FD000CE01805B9F4FFC0180819181A281B38112
:100FE000BC01CD010E942413DC01CB010EC02DA158
:100FF0003EA14FA158A589A19AA1ABA1BCA1BC015A
:10100000CD010E942413DC01CB018DA79EA7AFA7C1
:10101000B8AB20E030E044E353E46DA57EA58FA596
:1010200098A90E941715DC01CB012BED3FE049E4A4
:1010300050E4BC01CD010E948813DC01CB019E016C
:10104000235C3F4FF90180839183A283B3838D8119
:101050009E81AF81B885BC01CD010E948A15DC015B
:10106000CB0189AB9AABABABBCAB8EEC9CECACE9E7
:10107000B0E48DAB9EABAFABB8AF86E696E6A2EA26
:10108000B1E489AF9AAFABAFBCAF27E137EB41ED2D
:1010900058E36DA97EA98FA998AD0E94A412DC0126
:1010A000CB0129A93AA94BA95CA9BC01CD010E9499
:1010B00083131816CCF027E137EB41ED58E369AD07
:1010C0007AAD8BAD9CAD0E94A512DC01CB0129A9A4
:1010D0003AA94BA95CA9BC01CD010E940A1588233D
:1010E0001CF081E090E002C080E090E0282F2170A9
:1010F000CE01875B9F4FFC012083CE01865B9F4F13
:10110000FC01808191812DE0FE01FD96DC010190C2
:101110000D922A95E1F7CE01865B9F4FFC018081FD
:101120009181C75ADF4F0FB6F894DEBF0FBECDBF17
:10113000DF91CF911F910F91FF90EF90DF90CF90B3
:10114000BF90AF900895AF92BF92CF92DF92EF928F
:10115000FF920F931F93CF93DF93CDB7DEB7E39743
:101160000FB6F894DEBF0FBECDBF9BA78AA77DA7A1
:101170006CA75FA74EA739AB28AB1BAB0AAB1B8292
:101180001C821D821E821F82188619861A8680E0A4
:1011900090E0A0E7B1E48B879C87AD87BE871A8279
:1011A000198205C429813A81C901880F991F820FCC
:1011B000931F880F991F880F991F9C018AA59BA5D3
:1011C000820F931FFC0180819181A281B38120E075
:1011D00030E040E85FEBBC01CD010E94831388231F
:1011E00009F03FC029813A81C901880F991F820FF8
:1011F000931F880F991F880F991F9C018AA59BA593
:10120000820F931FFC0184819581A681B78120E024
:1012100030E040E85FEBBC01CD010E9483138823DE
:1012200001F529813A81C901880F991F820F931F07
:10123000880F991F880F991F9C018AA59BA5820F73
:10124000931FFC0180859185A285B38520E030E065
:1012500040E85FEBBC01CD010E948313882309F4B1
:10126000AFC329813A81C901880F991F820F931F4B
:10127000880F991F880F991F9C018AA59BA5820F33
:10128000931FFC0184819581A681B78111E020E044
:1012900030E0A901BC01CD010E94831388230CF02A
:1012A00010E081E08127882F90E0988B8F8729813B
:1012B0003A81C901880F991F820F931F880F991FC8
:1012C000880F991F9C018AA59BA5820F931FFC0183
:1012D000E084F1840285138529813A81C901880F50
:1012E000991F820F931F880F991F880F991F9C01C8
:1012F0008AA59BA5820F931FFC012481358146811D
:10130000578169817A81CB01880F991F860F971FBA
:10131000880F991F880F991FBC018AA59BA5860F6E
:10132000971FFC0180819181A281B381FE017D968E
:101330006F8578895B016701780189019A01AC01A9
:10134000BD01CF010E94EB0589A19AA1ABA1BCA16F
:101350002D8D3E8D4F8D58A1BC01CD010E94A5124F
:10136000DC01CB0189A39AA3ABA3BCA389819A8199
:10137000892B09F067C189819A81880F991F9C0187
:10138000220F331F220F331F220F331FA901481BC7
:10139000590BCA012CA53DA58901080F191F8D8D78
:1013A0009E8DAF8DB8A1FF24F39420E030E0A90119
:1013B000BC01CD010E94831388230CF0F12C81E045
:1013C0008F25882F90E0F8019587848789819A81FD
:1013D000880F991F9C01220F331F220F331F220FEA
:1013E000331FA901481B590BCA012CA53DA5280F85
:1013F000391F8D8D9E8DAF8DB8A1BF77F901808388
:101400009183A283B38389819A81880F991F9C015C
:10141000220F331F220F331F220F331FA901481B36
:10142000590BCA012CA53DA5820F931FFC01108604
:1014300011861286138689819A81880F991F9C01D3
:10144000220F331F220F331F220F331FA901481B06
:10145000590BCA012CA53DA5820F931FFC011482D4
:1014600015821682178289819A81880F991F9C01A3
:10147000220F331F220F331F220F331FA901481BD6
:10148000590BCA012EA53FA58901080F191F89A173
:101490009AA1ABA1BCA1FF24F39420E030E0A90104
:1014A000BC01CD010E94831388230CF0F12C81E054
:1014B0008F25882F90E0F8019587848789819A810C
:1014C000880F991F9C01220F331F220F331F220FF9
:1014D000331FA901481B590BCA012EA53FA5280F90
:1014E000391F89A19AA1ABA1BCA1BF77F901808363
:1014F0009183A283B38389819A81880F991F9C016C
:10150000220F331F220F331F220F331FA901481B45
:10151000590BCA012EA53FA5820F931FFC0110860F
:1015200011861286138689819A81880F991F9C01E2
:10153000220F331F220F331F220F331FA901481B15
:10154000590BCA012EA53FA5820F931FFC011482DF
:1015500015821682178289819A81880F991F9C01B2
:10156000220F331F220F331F220F331FA901481BE5
:10157000590BCA0128A939A98901080F191F8DA182
:101580009EA1AFA1B8A5FF24F39420E030E040E78E
:1015900051E4BC01CD010E94831388230CF0F12C8F
:1015A0008F2D90E0F8019587848789819A81880F33
:1015B000991F9C01220F331F220F331F220F331F4D
:1015C000A901481B590BCA0128A939A9280F391F9D
:1015D0008DA19EA1AFA1B8A5F90184839583A683AF
:1015E000B78389819A81880F991F9C01220F331F2D
:1015F000220F331F220F331FA901481B590BCA01A9
:1016000028A939A9820F931FFC0110861186128622
:10161000138689819A81880F991F9C01220F331F9D
:10162000220F331F220F331FA901481B590BCA0178
:1016300028A939A9820F931FFC01108211821282FE
:101640001382B0C18D8D9E8DAF8DB8A12B813C8151
:101650004D815E81BC01CD010E94A412DC01CB0151
:10166000898B9A8BAB8BBC8B89819A81880F991F50
:101670009C01220F331F220F331F220F331FA9019A
:10168000481B590BCA012CA53DA58901080F191F3C
:10169000FF24F39420E030E0A90169897A898B89DD
:1016A0009C890E94831388230CF0F12C81E08F2504
:1016B000882F90E0F8019587848789819A81880F27
:1016C000991F9C01220F331F220F331F220F331F3C
:1016D000A901481B590BCA012CA53DA5280F391F8C
:1016E00089899A89AB89BC89BF77F9018083918305
:1016F000A283B38389819A81880F991F9C01220F4D
:10170000331F220F331F220F331FA901481B590B10
:10171000CA012CA53DA5820F931FFC0110861186DE
:101720001286138689819A81880F991F9C01220F46
:10173000331F220F331F220F331FA901481B590BE0
:10174000CA012CA53DA5820F931FFC0114821582AE
:101750001682178289A19AA1ABA1BCA12F813885DD
:1017600049855A85BC01CD010E94A412DC01CB0140
:101770008D8B9E8BAF8BB88F89819A81880F991F33
:101780009C01220F331F220F331F220F331FA90189
:10179000481B590BCA012EA53FA58901080F191F27
:1017A000FF24F39420E030E0A9016D897E898F89C0
:1017B000988D0E94831388230CF0F12C81E08F25F3
:1017C000882F90E0F8019587848789819A81880F16
:1017D000991F9C01220F331F220F331F220F331F2B
:1017E000A901481B590BCA012EA53FA5280F391F77
:1017F0008D899E89AF89B88DBF77F90180839183E8
:10180000A283B38389819A81880F991F9C01220F3B
:10181000331F220F331F220F331FA901481B590BFF
:10182000CA012EA53FA5820F931FFC0110861186C9
:101830001286138689819A81880F991F9C01220F35
:10184000331F220F331F220F331FA901481B590BCF
:10185000CA012EA53FA5820F931FFC011482158299
:10186000168217828DA19EA1AFA1B8A52B853C85BC
:101870004D855E85BC01CD010E94A412DC01CB0127
:10188000898F9A8FAB8FBC8F89819A81880F991F1E
:101890009C01220F331F220F331F220F331FA90178
:1018A000481B590BCA0128A939A98901080F191F1A
:1018B000FF24F39420E030E0A901698D7A8D8B8DAF
:1018C0009C8D0E94831388230CF0F12C81E08F25DE
:1018D000882F90E0F8019587848789819A81880F05
:1018E000991F9C01220F331F220F331F220F331F1A
:1018F000A901481B590BCA0128A939A9280F391F6A
:10190000898D9A8DAB8DBC8DBF77F90184839583CA
:10191000A683B78389819A81880F991F9C01220F22
:10192000331F220F331F220F331FA901481B590BEE
:10193000CA0128A939A9820F931FFC0110861186BC
:101940001286138689819A81880F991F9C01220F24
:10195000331F220F331F220F331FA901481B590BBE
:10196000CA0128A939A9820F931FFC011082118294
:10197000128213828D8D9E8DAF8DB8A18B839C8337
:10198000AD83BE8389A19AA1ABA1BCA18F839887A7
:10199000A987BA878DA19EA1AFA1B8A58B879C8787
:1019A000AD87BE8789819A8101969A83898329812F
:1019B0003A818AA99BA9281739070CF4F3CB01C0F7
:1019C000000099A581E08927882321F083EF91E029
:1019D0000E94D21129813A818AA99BA92817390727
:1019E0000CF07BC089819A81880F991F9C01220F7E
:1019F000331F220F331F220F331FA901481B590B1E
:101A0000CA012CA53DA5820F931F20E030E040E8DD
:101A10005FEBFC012083318342835383FC011482FA
:101A2000158216821782FC01108611861286138693
:101A3000FC011586148689819A81880F991F9C0163
:101A4000220F331F220F331F220F331FA901481B00
:101A5000590BCA012EA53FA5820F931F20E030E04D
:101A600040E85FEBFC012083318342835383FC0118
:101A70001482158216821782FC0110861186128646
:101A80001386FC011586148689819A81880F991F17
:101A90009C01220F331F220F331F220F331FA90176
:101AA000481B590BCA0128A939A9820F931FFC01B1
:101AB000108211821282138220E030E040E85FEB56
:101AC000FC012483358346835783FC0110861186ED
:101AD00012861386FC01158614860000E3960FB665
:101AE000F894DEBF0FBECDBFDF91CF911F910F9154
:101AF000FF90EF90DF90CF90BF90AF900895CF937D
:101B0000DF93CDB7DEB780914A068823C1F180917B
:101B100050068823A1F18091FC02882381F19091E5
:101B2000FD028091D1069817D8F48091FD028F5F55
:101B30008093FD0281E08093480681E080934E0609
:101B400081E08093FA028AE092E00E94D2118DE057
:101B500092E00E94D21180E192E00E94D21109C06D
:101B600083E08093480683E080934E0683E0809371
:101B7000FA0210924A06109250061092FC020E943D
:101B8000E80E0E94F7100E94B5010000DF91CF918E
:101B900008951F920F9200905F000F9211242F93CF
:101BA0003F934F935F936F937F938F939F93AF93E5
:101BB000BF93EF93FF93CF93DF93CDB7DEB78091C1
:101BC00046069091470601969093470680934606F5
:101BD00080914606909147069C01990F440B550B46
:101BE0008091FD02882F90E0BC01CB01880F991FE6
:101BF000BC01CB01880F991F880F991F880F991F6F
:101C0000861B970B8A5F9C4FFC0180819181A2818A
:101C1000B381281739074A075B07C4F080E890E0D2
:101C200020E830E0F90120812F77FC0120838FE646
:101C300090E02FE630E0F90120812D7FFC01208328
:101C400081E080934A0683E08093F1010000DF91F8
:101C5000CF91FF91EF91BF91AF919F918F917F9124
:101C60006F915F914F913F912F910F9000925F0084
:101C70000F901F901895CF93DF93CDB7DEB78BE20F
:101C800090E02BE230E0F90120812062FC0120830A
:101C900096C08091F101882F90E08130910559F034
:101CA000823091050CF48BC082309105C9F1039705
:101CB00009F472C084C01092470610924606109232
:101CC000FD028091FD02882F90E09C01C901880FE0
:101CD000991F9C01C901880F991F880F991F880FB0
:101CE000991F821B930B9C012A5F3C4F86E896E16B
:101CF000A0E0B0E0F90180839183A283B38384E8FC
:101D000090E0FC011182108280E890E020E830E051
:101D1000F90120812068FC0120831092F1014FC05D
:101D200085E290E025E230E0F90120812E7FFC0180
:101D3000208310924706109246068091FD02882F5C
:101D400090E09C01C901880F991F9C01C901880F6F
:101D5000991F880F991F880F991F821B930B9C0155
:101D60002A5F3C4F80E897E0A0E0B0E0F901808373
:101D70009183A283B38384E890E0FC0111821082F6
:101D80008BE690E02BE630E0F90120812B7FFC010F
:101D900020831092F10113C08BE690E02BE630E037
:101DA000F90120812460FC01208381E080934906B1
:101DB0001092470610924606109248060000809145
:101DC0004906882309F465CF0000DF91CF9108957B
:101DD000CF93DF93CDB7DEB780914806882F90E090
:101DE0008130910561F0823091050CF47DC0823024
:101DF000910509F44EC0039709F46CC076C01092A7
:101E000047061092460684E890E0FC011182108299
:101E10008091FD02882F90E09C01C901880F991FD5
:101E20009C01C901880F991F880F991F880F991F5E
:101E3000821B930B865F9C4FFC01808191810197EF
:101E400051F485E290E025E230E0F90120812E7F17
:101E5000FC01208309C085E290E025E230E0F90131
:101E600020812160FC012083109248068FE690E0DB
:101E70002FE630E0F90120812260FC01208380E818
:101E800090E020E830E0F90120812068FC01208307
:101E90002CC08CE290E0FC018081882F90E084705F
:101EA0009927892B69F081E08093480680E890E0CB
:101EB00020E830E0F90120812068FC01208315C072
:101EC00080E890E020E830E0F90120812F77FC01E4
:101ED00020830BC08BE290E02BE230E0F9012081FF
:101EE0002061FC01208301C000000000DF91CF9140
:101EF00008951F920F9200905F000F9211242F936C
:101F00003F934F935F936F937F938F939F93AF9381
:101F1000BF93EF93FF93CF93DF93CDB7DEB780915D
:101F20004B0690914C06019690934C0680934B067D
:101F300080914B0690914C069C0140E050E08091CE
:101F4000FD02882F90E0BC01CB01880F991FBC01D6
:101F5000CB01880F991F880F991F880F991F861B27
:101F6000970B825E9B4FFC0180819181A281B3819E
:101F7000281739074A075B07C4F080E990E020E999
:101F800030E0F90120812F77FC01208381E790E088
:101F900021E730E0F90120812D7FFC01208381E0E1
:101FA0008093500683E08093F2010000DF91CF918F
:101FB000FF91EF91BF91AF919F918F917F916F9121
:101FC0005F914F913F912F910F9000925F000F9082
:101FD0001F9018951F920F9200905F000F9211248E
:101FE0008F939F93EF93FF93CF93DF93CDB7DEB79C
:101FF0008CE290E0FC018081882F90E0847099272A
:10200000892B51F080914806843031F082E0809332
:10201000480682E08093F1018CE290E0FC0180812F
:10202000882F90E082709927892B51F080914E067D
:10203000843031F083E080934E0682E08093F20199
:102040008CE290E0FC018081882F90E081709927DC
:10205000892B51F08091FA02843031F083E0809333
:10206000FA0282E0809300010000DF91CF91FF919E
:10207000EF919F918F910F9000925F000F901F90B2
:102080001895CF93DF93CDB7DEB7A8C08091F2014A
:10209000882F90E08130910559F0823091050CF441
:1020A0009DC082309105C9F1039709F472C096C0B2
:1020B00010924C0610924B0684E990E0FC011182CC
:1020C000108210924D0680914D06882F90E09C0161
:1020D000C901880F991F9C01C901880F991F880F9A
:1020E000991F880F991F821B930B9C01225E3B4F07
:1020F00088EA97E2A0E0B0E0F90180839183A283AF
:10210000B38380E990E020E930E0F9012081206884
:10211000FC0120831092F20161C08BE290E02BE27F
:1021200030E0F90120812B7FFC01208310924C06C6
:1021300010924B0684E990E0FC011182108280919C
:102140004D06882F90E09C01C901880F991F9C01C2
:10215000C901880F991F880F991F880F991F821B2B
:10216000930B9C01225E3B4F88E39DE0A0E0B0E032
:10217000F90180839183A283B3838BE690E02BE601
:1021800030E0F90120812F7EFC0120831092F201C2
:1021900025C081E790E021E730E0F90120812D7F23
:1021A000FC01208380E990E020E930E0F901208102
:1021B0002F77FC0120838BE690E02BE630E0F901DD
:1021C00020812061FC01208381E080934F061092E2
:1021D0004E0610924C0610924B06000080914F065E
:1021E000882309F453CF0000DF91CF910895CF9356
:1021F000DF93CDB7DEB780914E06882F90E0813017
:10220000910561F0823091050CF47FC08230910518
:1022100009F450C0039709F46EC078C010924C06C0
:1022200010924B061092500684E990E0FC01118256
:1022300010828091FD02882F90E09C01C901880FD7
:10224000991F9C01C901880F991F880F991F880F3A
:10225000991F821B930B8E5D9B4FFC0180819181A6
:10226000019751F48BE290E02BE230E0F9012081FC
:102270002B7FFC01208309C08BE290E02BE230E051
:10228000F90120812460FC01208310924E0681E731
:1022900090E021E730E0F90120812260FC012083F9
:1022A00080E990E020E930E0F90120812068FC011C
:1022B00020832CC08CE290E0FC018081882F90E08C
:1022C00082709927892B69F081E080934E0680E91E
:1022D00090E020E930E0F90120812068FC012083B2
:1022E00015C080E990E020E930E0F90120812F77E6
:1022F000FC0120830BC08BE290E02BE230E0F9017F
:1023000020812062FC01208301C000000000DF91D9
:10231000CF910895CF93DF93CDB7DEB78DEC90E0EA
:10232000FC0110828CEC90E027E6FC01208389EC14
:1023300090E028E1FC0120838AEC90E026E0FC019B
:1023400020830000DF91CF910895CF93DF93CDB725
:10235000DEB7000088EC90E0FC0180818823D4F790
:102360008EEC90E0FC018081DF91CF910895CF93B6
:10237000DF931F92CDB7DEB78983000088EC90E031
:10238000FC018081882F90E080729927892BB1F31E
:102390008EEC90E02981FC01208300000F90DF91FA
:1023A000CF910895CF93DF9300D0CDB7DEB79A8356
:1023B000898314C089819A81FC0180818A3019F453
:1023C0008DE00E94B71189819A819C012F5F3F4F58
:1023D0003A832983FC0180810E94B71189819A8107
:1023E000FC018081882331F700000F900F90DF916E
:1023F000CF910895CF93DF93CDB7DEB727970FB670
:10240000F894DEBF0FBECDBF9D838C837F836E8328
:102410001A8219820E94A5118B838B818D3019F04D
:102420008B818A3059F489819A812C813D81820F78
:10243000931FFC01108289819A811AC08E819F812D
:102440009C012150310989819A818217930714F7E1
:1024500089819A819C012F5F3F4F3A8329839C0198
:102460008C819D81820F931F2B81FC012083D2CF11
:1024700027960FB6F894DEBF0FBECDBFDF91CF9188
:1024800008950F931F93CF93DF93CDB7DEB70E94CC
:102490008A1102E110E02EE235E046E154E06EEFF1
:1024A00072E081E091E00E94A3088EEF92E00E942A
:1024B0007D048093D10686E194E00E94F7048EE2C9
:1024C00095E00E94710585E192E00E94D2118CE3B3
:1024D00092E00E94D21160E870E081E596E00E94EF
:1024E000FA1181E692E00E94D2110E9446020E94F7
:1024F0003B0E88E892E00E94D2110E94D3020E9413
:10250000411083E992E00E94D2110E9460030E9470
:1025100001018EE992E00E94D21189EA92E00E94C4
:10252000D21160E870E081E596E00E94FA118BEC30
:1025300092E00E94D2110E9446020E94D3020E94A1
:1025400060030E947F0DFDCF5058BB27AA270E9431
:10255000BC120C94D0140E94C21438F00E94C9140A
:1025600020F039F49F3F19F426F40C9498140EF4DB
:10257000E095E7FB0C949214E92F0E94E11458F3C4
:10258000BA17620773078407950720F079F4A6F558
:102590000C9403150EF4E0950B2EBA2FA02D0B0111
:1025A000B90190010C01CA01A0011124FF27591B98
:1025B00099F0593F50F4503E68F11A16F040A22F9E
:1025C000232F342F4427585FF3CF4695379527950F
:1025D000A795F0405395C9F77EF41F16BA0B620B0E
:1025E000730B840BBAF09150A1F0FF0FBB1F661F55
:1025F000771F881FC2F70EC0BA0F621F731F841F98
:1026000048F4879577956795B795F7959E3F08F0BD
:10261000B0CF9395880F08F09927EE0F979587957F
:1026200008950E94C21460F080E891E009F49EEFE2
:102630000E94C91428F040E851E071F45EEF0CC02C
:102640000C9498140C940315E92FE0780E94E1147F
:1026500040F3092E052AB1F3261737074807590713
:1026600038F00E2E07F8E02569F0E025E0640AC096
:10267000EF6307F8009407FADB01B9019D01DC0163
:10268000CA01AD01EF930E949F130E94D0140E94D3
:1026900054135F91552339F02BED3FE049E450FD91
:1026A00049EC0C94A5120895DF93DD27B92FBF776D
:1026B00040E85FE31616170648075B0718F4D92FA2
:1026C0000E940F159F938F937F936F930E94CA155B
:1026D000E4EBF0E00E949B140E94D0142F913F91F4
:1026E0004F915F910E942A15DD2351F09058A2EA84
:1026F0002AED3FE049EC5FE3D0785D270E94BC12F1
:10270000DF910C94D0140E946E1408F481E00895B7
:102710000E949C130C94D0140E94C91458F00E947B
:10272000C21440F029F45F3F29F00C949214511127
:102730000C9404150C9498140E94E11468F39923E6
:10274000B1F3552391F3951B550BBB27AA276217AD
:102750007307840738F09F5F5F4F220F331F441FBA
:10276000AA1FA9F335D00E2E3AF0E0E832D09150EE
:102770005040E695001CCAF72BD0FE2F29D0660FDB
:10278000771F881FBB1F261737074807AB07B0E81E
:1027900009F0BB0B802DBF01FF2793585F4F3AF024
:1027A0009E3F510578F00C9492140C9404155F3FF1
:1027B000E4F3983ED4F3869577956795B795F795AA
:1027C0009F5FC9F7880F911D9695879597F9089592
:1027D000E1E0660F771F881FBB1F6217730784072E
:1027E000BA0720F0621B730B840BBA0BEE1F88F73D
:1027F000E09508950E9401146894B1110C94041599
:1028000008950E94E91488F09F5798F0B92F9927EE
:10281000B751B0F0E1F0660F771F881F991F1AF0CB
:10282000BA95C9F714C0B13091F00E940315B1E018
:1028300008950C940315672F782F8827B85F39F017
:10284000B93FCCF3869577956795B395D9F73EF464
:1028500090958095709561957F4F8F4F9F4F08950C
:10286000990FBB0B550FAA0BE0E8FEEF16161706E3
:10287000E807F90770F012161306E407F50760F091
:10288000BA173CF049F46217730784079507A795B8
:102890001BF4B901CA01BA2FB69597950895990FFF
:1028A000BB0B550FAA0BE0E8FEEF16161706E8075C
:1028B000F90770F012161306E407F50760F0BA176F
:1028C00054F031F42617370748075907A7951BF42A
:1028D000B901CA01BA2FB69597950895990F0008C6
:1028E000550FAA0BE0E8FEEF16161706E807F907E2
:1028F000C0F012161306E407F50798F0621B730B7D
:10290000840B950B39F40A2661F0232B242B252BFD
:1029100021F408950A2609F4A140A6958FEF811DA0
:10292000811D089597F99F6780E870E060E0089541
:102930009FEF80EC0895DF93CF931F930F93FF9247
:10294000EF92DF927B018C01689406C0DA2EEF01D2
:102950000E942A15FE01E894A59125913591459193
:102960005591A6F3EF010E94BC12FE019701A80148
:10297000DA9469F7DF90EF90FF900F911F91CF915C
:10298000DF91089500240A94161617061806090602
:10299000089500240A9412161306140605060895D5
:1029A000092E0394000C11F4882352F0BB0F40F45D
:1029B000BF2B11F460FF04C06F5F7F4F8F4F9F4F9D
:1029C000089557FD9058440F551F59F05F3F71F01F
:1029D0004795880F97FB991F61F09F3F79F0879586
:1029E0000895121613061406551FF2CF4695F1DF0F
:1029F00008C0161617061806991FF1CF869571059F
:102A0000610508940895E894BB2766277727CB01D2
:102A100097F908950E946E1408F48FEF08959B01B2
:102A2000AC0160E070E080E89FE30C9488130E94A2
:102A30002A150C94D0140E94C21438F00E94C914B4
:102A400020F0952311F00C9492140C9498141124F6
:102A50000C9404150E94E11470F3959FC1F3950F37
:102A600050E0551F629FF001729FBB27F00DB11D12
:102A7000639FAA27F00DB11DAA1F649F6627B00DA2
:102A8000A11D661F829F2227B00DA11D621F739F8B
:102A9000B00DA11D621F839FA00D611D221F749F99
:102AA0003327A00D611D231F849F600D211D822FE0
:102AB000762F6A2F11249F5750409AF0F1F0882307
:102AC0004AF0EE0FFF1FBB1F661F771F881F915034
:102AD0005040A9F79E3F510580F00C9492140C943D
:102AE00004155F3FE4F3983ED4F386957795679598
:102AF000B795F795E7959F5FC1F7FE2B880F911D5E
:102B00009695879597F9089519F416F40C949814EE
:102B10000C94CE150E94E914B8F39923C9F3B6F3C7
:102B20009F57550B87FF0E94DC150024A0E640EA62
:102B3000900180585695979528F4805C660F771F12
:102B4000881F20F026173707480730F4621B730BE5
:102B5000840B202931294A2BA69517940794202508
:102B600031254A2758F7660F771F881F20F0261750
:102B70003707480730F4620B730B840B200D311DAF
:102B8000411DA09581F7B901842F9158880F969522
:102B9000879508959B01AC010C9417159F3F31F068
:102BA000915020F4879577956795B795880F911D7B
:102BB0009695879597F9089591505040660F771F25
:0A2BC000881FD2F70895F894FFCFA4
:102BCA00010000A041000000000000A0400000A099
:102BDA004100000000000050410000204100002098
:102BEA00410000C0400000304100001041000000D8
:102BFA0041000048410000F0400000204100006010
:102C0A00410000C04000004041000070410000A0A7
:102C1A004000006041000080BF000080BF000080CB
:102C2A00BF000000000000000000000000000000DB
:102C3A00000000000000000000000000000000008A
:102C4A00000000000000000000000000000000007A
:102C5A00000000000000000000000000000000006A
:102C6A00000000000000000000000000000000005A
:102C7A00000000000000000000000000000000004A
:102C8A00000000000000000000000000000000003A
:102C9A00000000000000000000000000000000002A
:102CAA00000000000000000000000000000000001A
:102CBA00000101506F696E74204E4F5420416368C1
:102CCA0069657661626C650D0A0051320051330004
:102CDA0051340D0A002D2D2D2D2D2D2D2D2D2D2D5F
:102CEA002D2D524F424F5420494E49542D2D2D2DF2
:102CFA002D2D2D2D2D2D2D2D2D0D0A0050524553E4
:102D0A00532022454E5445522220544F20494E49C1
:102D1A005449414C495A4520484F4D494E470D0A9E
:102D2A00002D2D2D2D2D2D2D2D2D2D2D2D2D2D2DF6
:102D3A00484F4D494E472D2D2D2D2D2D2D2D2D2D05
:102D4A002D2D2D2D2D0D0A00513220434845434B80
:102D5A000D0A00513320434845434B0D0A004431C4
:102D6A0020434845434B0D0A0050524553532022F5
:102D7A00454E5445522220544F20494E4954494108
:102D8A004C495A45204D4F560D0A002D2D2D2D2DFB
:102D9A002D2D2D2D2D2D2D2D2D2D504F534954498F
:102DAA004F4E494E472D2D2D2D2D2D2D2D2D2D2DAF
:082DBA002D2D2D2D0D0A000046
:00000001FF
