:100000000C945A000C9477000C9477000C944001E7
:100010000C9477000C9477000C9477000C94770084
:100020000C9477000C9477000C9477000C940901E1
:100030000C9477000C9477000C9428020C947700B1
:100040000C9477000C9477000C9477000C94770054
:100050000C9477000C9477000C9477000C94770044
:100060000C9477000C9477000C9477000C94770034
:100070000C9477000C9477000C9477000C94770024
:100080000C9477000C9477000C9477000C94770014
:100090000C9477000C9477000C9477000C94770004
:1000A0000C9477000C9477000C9477000C947700F4
:1000B0000C94770011241FBECFEFD8E0DEBFCDBF78
:1000C00011E0A0E0B1E0E8EDF7E002C005900D928C
:1000D000A834B107D9F721E0A8E4B1E001C01D922E
:1000E000A035B207E1F70E944E020C94EA030C948B
:1000F00000008AB1877F8AB98BB1877F8BB9E9E627
:10010000F0E080818160808380818D7F80838DB3EA
:1001100081608DBB089584B1876084B984B1877F85
:1001200084B985B1816085B985B1837F85B987B18F
:10013000806387B988B18F7C88B982E8809380001A
:100140008AE180938100EFE6F0E080818260808325
:10015000EBE6F0E0808188608083E8E6F0E0808173
:10016000816080838FEC97E0909387008093860076
:1001700087EE93E0909389008093880078940895A7
:1001800020E030E044EB53E40E94600220E030E3E2
:1001900044EB55E40E947D030E94D202CB010895F6
:1001A000CF92DF92EF92FF92CF93DF93C0E0D0E047
:1001B00012C0C701B6010E94C000FE01EE0FFF1F72
:1001C000EE0FFF1FEE0FFF1FE050FF4F958384835C
:1001D000C09348012196FE01EE0FFF1FEE0FFF1F97
:1001E000EE0FFF1FE050FF4FC080D180E280F38010
:1001F00020E030E040E85FEBC701B6010E945B02FF
:100200008111D7CFDF91CF91FF90EF90DF90CF900A
:1002100008951F920F920FB60F9211242F933F93C0
:100220008F939F93EF93FF9380914C0190914D0199
:10023000019690934D0180934C01E0914A01F09119
:100240004B01EE0FFF1FEE0FFF1FEE0FFF1FE050E1
:10025000FF4F2481358180914C0190914D0182178F
:1002600093071CF081E080934901FF91EF919F91EA
:100270008F913F912F910F900FBE0F901F90189567
:100280001F920F920FB60F9211248F938091490104
:10029000843019F083E0809349018F910F900FBE55
:1002A0000F901F9018951B9B53C0109285001092C1
:1002B000840010924B0110924A01E0914A01F091A2
:1002C0004B01EE0FFF1FEE0FFF1FEE0FFF1FE05061
:1002D000FF4F86E896E195838483E0E8F0E0808133
:1002E00080688083809149018330E1F795B181E096
:1002F000892785B910924D0110924C01109285000A
:1003000010928400E0914A01F0914B01EE0FFF1F23
:10031000EE0FFF1FEE0FFF1FE050FF4F80E897E04A
:1003200095838483809149018130E1F7E0E8F0E032
:1003300080818F7780832FE38DE093E02150804090
:100340009040E1F700C000001092850010928400F8
:10035000089580914901823021F118F4813041F0F3
:100360000895833009F452C0843009F460C00895C0
:10037000E0E8F0E080818F77808388EE93E00E9450
:100380003F02882309F456C080914A0190914B01A5
:10039000019690934B0180934A0182E0809349013A
:1003A00008958091480190E020914A0130914B01DD
:1003B000821793073CF110924D0110924C0110925C
:1003C000850010928400E0E8F0E0808180688083FE
:1003D000E0914A01F0914B01EE0FFF1FEE0FFF1F5E
:1003E000EE0FFF1FE050FF4F86819781019721F4A8
:1003F00085B18E7F85B903C085B1816085B91092C2
:100400004901089584E08093490108951B9B09C028
:1004100082E080934901E0E8F0E080818068808399
:100420000895E0E8F0E080818F778083089585B1BA
:10043000846085B9089582E084BD83E085BD89EF3D
:1004400087BDEEE6F0E08081826080837894089535
:100450001F920F920FB60F9211248F939F9380914A
:100460004E0190914F01019690934F0180934E0160
:100470009F918F910F900FBE0F901F901895209114
:100480004E0130914F012817390730F010924F017B
:1004900010924E0181E0089580E008950E94D000FE
:1004A0000E9479000E941B020E948B000E9453014F
:1004B0000E94A901FDCF0E94080308F481E008957D
:1004C0000E9474020C9443030E943C0358F00E9463
:1004D000350340F029F45F3F29F00C942C035111AF
:1004E0000C9477030C9432030E94540368F399230D
:1004F000B1F3552391F3951B550BBB27AA27621720
:100500007307840738F09F5F5F4F220F331F441F2C
:10051000AA1FA9F335D00E2E3AF0E0E832D0915060
:100520005040E695001CCAF72BD0FE2F29D0660F4D
:10053000771F881FBB1F261737074807AB07B0E890
:1005400009F0BB0B802DBF01FF2793585F4F3AF096
:100550009E3F510578F00C942C030C9477035F3F79
:10056000E4F3983ED4F3869577956795B795F7951C
:100570009F5FC9F7880F911D9695879597F9089504
:10058000E1E0660F771F881FBB1F621773078407A0
:10059000BA0720F0621B730B840BBA0BEE1F88F7AF
:1005A000E09508950E94D9026894B1110C947703E4
:1005B00008950E945C0388F09F5798F0B92F9927FF
:1005C000B751B0F0E1F0660F771F881F991F1AF03E
:1005D000BA95C9F714C0B13091F00E947603B1E02A
:1005E00008950C947603672F782F8827B85F39F029
:1005F000B93FCCF3869577956795B395D9F73EF4D7
:1006000090958095709561957F4F8F4F9F4F08957E
:10061000990F0008550FAA0BE0E8FEEF1616170613
:10062000E807F907C0F012161306E407F50798F07B
:10063000621B730B840B950B39F40A2661F0232B94
:10064000242B252B21F408950A2609F4A140A69510
:100650008FEF811D811D089597F99F6780E870E0F5
:1006600060E008959FEF80EC089500240A94161628
:10067000170618060906089500240A941216130690
:10068000140605060895092E0394000C11F488231E
:1006900052F0BB0F40F4BF2B11F460FF04C06F5F3A
:1006A0007F4F8F4F9F4F089557FD9058440F551F10
:1006B00059F05F3F71F04795880F97FB991F61F0E4
:1006C0009F3F79F087950895121613061406551F5B
:1006D000F2CF4695F1DF08C0161617061806991FC7
:1006E000F1CF86957105610508940895E894BB27BC
:1006F00066277727CB0197F908950E9490030C9401
:1007000043030E94350338F00E943C0320F09523F8
:1007100011F00C942C030C94320311240C947703E5
:100720000E94540370F3959FC1F3950F50E0551F3D
:10073000629FF001729FBB27F00DB11D639FAA2736
:10074000F00DB11DAA1F649F6627B00DA11D661F85
:10075000829F2227B00DA11D621F739FB00DA11DA6
:10076000621F839FA00D611D221F749F3327A00D60
:10077000611D231F849F600D211D822F762F6A2FFC
:1007800011249F5750409AF0F1F088234AF0EE0F61
:10079000FF1FBB1F661F771F881F91505040A9F78E
:1007A0009E3F510580F00C942C030C9477035F3F1F
:1007B000E4F3983ED4F3869577956795B795F795CA
:1007C000E7959F5FC1F7FE2B880F911D9695879542
:0807D00097F90895F894FFCF9A
:1007D8000000DC42000001000000DC4200000000D4
:1007E8000000DC42000000000000DC4200000100C4
:1007F80000004842000000000000484200000100DC
:1008080000004842000001000000484200000000CB
:08081800000080BF0000000099
:00000001FF
