:100000000C945A000C941D010C9477000C9477000A
:100010000C9477000C9477000C9477000C94770084
:100020000C9477000C9477000C9477000C94E50006
:100030000C9477000C9477000C948A010C94770050
:100040000C9477000C9477000C9477000C94770054
:100050000C9477000C9477000C9477000C94770044
:100060000C9477000C9477000C9477000C94770034
:100070000C9477000C9477000C9477000C94770024
:100080000C9477000C9477000C9477000C94770014
:100090000C9477000C9477000C9477000C94770004
:1000A0000C9477000C9477000C9477000C947700F4
:1000B0000C94770011241FBECFEFD8E0DEBFCDBF78
:1000C00011E0A0E0B1E0E6E4F6E002C005900D9298
:1000D000A831B107D9F721E0A8E1B1E001C01D9234
:1000E000AF31B207E1F70E94B0010C9421030C94E8
:1000F00000008AB18E7F8AB98BB18E7F8BB9E9E619
:10010000F0E080818160808380818D7F80838DB3EA
:1001100081608DBB089584B1876084B985B18160A9
:1001200085B985B18B7F85B987B1806387B988B17F
:100130008F7C88B982E8809380008AE18093810077
:10014000EFE6F0E08081826080838FEC97E090930F
:1001500087008093860087EE93E0909389008093D8
:1001600088007894089520E030E044EB53E40E9446
:10017000BB0120E030E048EC54E40E94B4020E944D
:100180002D02CB0108950F931F93CF93DF9300E0CF
:1001900010E013C0E801CC0FDD1FC00FD11FCC0F42
:1001A000DD1FC050DF4F688179818A819B810E9469
:1001B000B3009D838C830F5F1F4F0430110554F3F0
:1001C000DF91CF911F910F9108951F920F920FB65B
:1001D0000F9211242F933F938F939F93EF93FF934D
:1001E00080911B0190911C01019690931C018093BA
:1001F0001B018091190190911A01FC01EE0FFF1F64
:10020000E80FF91FEE0FFF1FE050FF4F24813581EB
:1002100080911B0190911C01821793071CF081E0D3
:1002200080931801FF91EF919F918F913F912F91B2
:100230000F900FBE0F901F9018951F920F920FB640
:100240000F9211248F9380911801843019F083E06C
:10025000809318018F910F900FBE0F901F901895EB
:10026000809118018230E9F08330A9F1813009F0E2
:1002700043C0E0E8F0E080818F77808388EE93E0F0
:100280000E94A1018823C1F18091190190911A0166
:10029000019690931A018093190182E080931801CE
:1002A00008958091190190911A01049784F4109295
:1002B0001C0110921B011092850010928400E0E84E
:1002C000F0E080818068808310921801089584E0B6
:1002D00080931801089589B190E08E7F892B31F0C9
:1002E000E0E8F0E080818F778083089584B18E7F8D
:1002F00084B982E080931801089582E084BD83E090
:1003000085BD89EF87BDEEE6F0E080818260808365
:10031000789408951F920F920FB60F9211248F9325
:100320009F9380911D0190911E01019690931E0153
:1003300080931D019F918F910F900FBE0F901F9082
:10034000189520911D0130911E012817390730F0B2
:1003500010921E0110921D0181E0089580E0089521
:100360000E94C3000E9479000E947D010E948B00C0
:100370000E943001FDCF0E94CF010C947A020E94AE
:10038000730258F00E946C0240F029F45F3F29F09C
:100390000C94630251110C94AE020C9469020E94F9
:1003A0008B0268F39923B1F3552391F3951B550BF9
:1003B000BB27AA2762177307840738F09F5F5F4F38
:1003C000220F331F441FAA1FA9F335D00E2E3AF077
:1003D000E0E832D091505040E695001CCAF72BD08F
:1003E000FE2F29D0660F771F881FBB1F26173707E0
:1003F0004807AB07B0E809F0BB0B802DBF01FF2712
:1004000093585F4F3AF09E3F510578F00C94630289
:100410000C94AE025F3FE4F3983ED4F38695779553
:100420006795B795F7959F5FC9F7880F911D9695CA
:10043000879597F90895E1E0660F771F881FBB1F26
:10044000621773078407BA0720F0621B730B840BD3
:10045000BA0BEE1F88F7E09508950E943402689465
:10046000B1110C94AE0208950E94930288F09F5738
:1004700098F0B92F9927B751B0F0E1F0660F771FC8
:10048000881F991F1AF0BA95C9F714C0B13091F0BE
:100490000E94AD02B1E008950C94AD02672F782F51
:1004A0008827B85F39F0B93FCCF386957795679583
:1004B000B395D9F73EF490958095709561957F4FEF
:1004C0008F4F9F4F089597F99F6780E870E060E035
:1004D00008959FEF80EC089500240A9416161706DD
:1004E00018060906089500240A9412161306140625
:1004F00005060895092E0394000C11F4882352F088
:10050000BB0F40F4BF2B11F460FF04C06F5F7F4F3F
:100510008F4F9F4F089557FD9058440F551F59F026
:100520005F3F71F04795880F97FB991F61F09F3FE0
:1005300079F087950895121613061406551FF2CF09
:100540004695F1DF08C0161617061806991FF1CF59
:1005500086957105610508940895E894BB27662780
:100560007727CB0197F908950E94C7020C947A026D
:100570000E946C0238F00E94730220F0952311F063
:100580000C9463020C94690211240C94AE020E9434
:100590008B0270F3959FC1F3950F50E0551F629F3A
:1005A000F001729FBB27F00DB11D639FAA27F00DCC
:1005B000B11DAA1F649F6627B00DA11D661F829FF3
:1005C0002227B00DA11D621F739FB00DA11D621FD8
:1005D000839FA00D611D221F749F3327A00D611DF5
:1005E000231F849F600D211D822F762F6A2F1124D7
:1005F0009F5750409AF0F1F088234AF0EE0FFF1F0A
:10060000BB1F661F771F881F91505040A9F79E3F60
:10061000510580F00C9463020C94AE025F3FE4F34A
:10062000983ED4F3869577956795B795F795E795B6
:100630009F5FC1F7FE2B880F911D9695879597F9BF
:060640000895F894FFCFBD
:100646000000B442000000003443000000003442C1
:08065600000000003444000024
:00000001FF
