:100000000C945A000C9477000C9477000C944301E4
:100010000C9477000C9477000C9477000C94770084
:100020000C9477000C9477000C9477000C940901E1
:100030000C9477000C9477000C9454020C94770085
:100040000C9477000C9477000C9477000C94770054
:100050000C9477000C9477000C9477000C94770044
:100060000C9477000C9477000C9477000C94770034
:100070000C9477000C9477000C9477000C94770024
:100080000C9477000C9477000C9477000C94770014
:100090000C9477000C9477000C9477000C94770004
:1000A0000C9477000C9477000C9477000C947700F4
:1000B0000C94770011241FBECFEFD8E0DEBFCDBF78
:1000C00011E0A0E0B1E0EAE1F8E002C005900D9295
:1000D000AA33B107D9F721E0AAE3B1E001C01D922C
:1000E000A334B207E1F70E946B020C940B040C944A
:1000F00000008AB1877F8AB98BB1877F8BB9E9E627
:10010000F0E080818160808380818D7F80838DB3EA
:1001100081608DBB089584B1876084B984B1877F85
:1001200084B985B1816085B985B1837F85B987B18F
:10013000806387B988B18F7C88B982E8809380001A
:100140008AE180938100EFE6F0E080818260808325
:10015000EBE6F0E0808188608083E8E6F0E0808173
:10016000816080838FEC97E0909387008093860076
:1001700087EE93E0909389008093880078940895A7
:1001800020E030E044EB53E40E94810220E030E3C1
:1001900044EB55E40E949E030E94F302CB010895B4
:1001A000CF92DF92EF92FF92CF93DF93C0E0D0E047
:1001B00012C0C701B6010E94C000FE01EE0FFF1F72
:1001C000EE0FFF1FEE0FFF1FEF5FFE4F958384833F
:1001D000C0933A012196FE01EE0FFF1FEE0FFF1FA5
:1001E000EE0FFF1FEF5FFE4FC080D180E280F380F3
:1001F00020E030E040E85FEBC701B6010E947C02DE
:100200008111D7CFDF91CF91FF90EF90DF90CF900A
:1002100008951F920F920FB60F9211242F933F93C0
:100220008F939F93EF93FF9380913F0190914001B3
:1002300001969093400180933F01E0913D01F09140
:100240003E01EE0FFF1FEE0FFF1FEE0FFF1FEF5FD0
:10025000FE4F2481358180913F01909140018217AA
:10026000930734F081E080933C0183E080930001A8
:10027000FF91EF919F918F913F912F910F900FBE22
:100280000F901F9018951F920F920FB60F92112486
:100290008F9380913C01843031F083E080933C0166
:1002A00082E0809300018F910F900FBE0F901F90FE
:1002B000189572C080910001823031F1833009F4C9
:1002C00046C0813009F068C0109285001092840009
:1002D00010923E0110923D01E0913D01F0913E01EE
:1002E000EE0FFF1FEE0FFF1FEE0FFF1FEF5FFE4F22
:1002F00086E896E195838483E0E8F0E08081806879
:1003000080831092000148C085B18E7F85B910921C
:10031000400110923F011092850010928400E091FC
:100320003D01F0913E01EE0FFF1FEE0FFF1FEE0F9C
:10033000FF1FEF5FFE4F80E897E095838483EBE635
:10034000F0E08081877F80831092000125C0EFE676
:10035000F0E080818D7F8083F894E0E8F0E0808198
:100360008F778083EBE6F0E080818860808381E096
:1003700080933B0185B1846085B92FE38DE093E0E4
:10038000215080409040E1F700C0000010923C01F5
:100390001092400110923F0180913B01882309F4A3
:1003A00089CF089580913C018230C9F018F48130E2
:1003B00041F00895833009F455C0843009F463C0D6
:1003C0000895E0E8F0E080818F778083EFE6F0E049
:1003D00080818D7F808382E080933C0108958091AD
:1003E0003A0190E020913D0130913E018217930740
:1003F000ACF180913D0190913E01019690933E01B8
:1004000080933D011092400110923F0110928500AF
:1004100010928400EFE6F0E0808182608083E0E863
:10042000F0E0808180688083E0913D01F0913E01A1
:10043000EE0FFF1FEE0FFF1FEE0FFF1FEF5FFE4FD0
:1004400086819781019721F485B18E7F85B903C09C
:1004500085B1816085B910923C01089584E0809354
:100460003C0108951B9B09C082E080933C01E0E8B9
:10047000F0E08081806880830895E0E8F0E080818A
:100480008F778083089585B1846085B9089582E06F
:1004900084BD83E085BD89EF87BDEEE6F0E0808115
:1004A00082608083789408951F920F920FB60F9206
:1004B00011248F939F938091410190914201019665
:1004C00090934201809341019F918F910F900FBEB5
:1004D0000F901F9018950E94D0000E9479000E94F2
:1004E00047020E948B000E9459010E94D0000E9486
:1004F0008B000E94D201FDCF0E94290308F481E005
:1005000008950E9495020C9464030E945D0358F0C4
:100510000E94560340F029F45F3F29F00C944D03EC
:1005200051110C9498030C9453030E94750368F3C3
:100530009923B1F3552391F3951B550BBB27AA279C
:1005400062177307840738F09F5F5F4F220F331FD6
:10055000441FAA1FA9F335D00E2E3AF0E0E832D09E
:1005600091505040E695001CCAF72BD0FE2F29D0A1
:10057000660F771F881FBB1F261737074807AB0773
:10058000B0E809F0BB0B802DBF01FF2793585F4FE8
:100590003AF09E3F510578F00C944D030C9498036B
:1005A0005F3FE4F3983ED4F3869577956795B795CA
:1005B000F7959F5FC9F7880F911D9695879597F9D5
:1005C0000895E1E0660F771F881FBB1F621773074E
:1005D0008407BA0720F0621B730B840BBA0BEE1F63
:1005E00088F7E09508950E94FA026894B1110C947E
:1005F000980308950E947D0388F09F5798F0B92FC3
:100600009927B751B0F0E1F0660F771F881F991F47
:100610001AF0BA95C9F714C0B13091F00E9497034F
:10062000B1E008950C949703672F782F8827B85F5F
:1006300039F0B93FCCF3869577956795B395D9F79F
:100640003EF490958095709561957F4F8F4F9F4FA9
:100650000895990F0008550FAA0BE0E8FEEF161653
:100660001706E807F907C0F012161306E407F507A6
:1006700098F0621B730B840B950B39F40A2661F01A
:10068000232B242B252B21F408950A2609F4A140BD
:10069000A6958FEF811D811D089597F99F6780E8CA
:1006A00070E060E008959FEF80EC089500240A94C4
:1006B0001616170618060906089500240A9412163D
:1006C0001306140605060895092E0394000C11F470
:1006D000882352F0BB0F40F4BF2B11F460FF04C01D
:1006E0006F5F7F4F8F4F9F4F089557FD9058440F76
:1006F000551F59F05F3F71F04795880F97FB991F81
:1007000061F09F3F79F0879508951216130614063D
:10071000551FF2CF4695F1DF08C0161617061806CA
:10072000991FF1CF86957105610508940895E894A5
:10073000BB2766277727CB0197F908950E94B1035D
:100740000C9464030E94560338F00E945D0320F06D
:10075000952311F00C944D030C94530311240C9425
:1007600098030E94750370F3959FC1F3950F50E0B5
:10077000551F629FF001729FBB27F00DB11D639F53
:10078000AA27F00DB11DAA1F649F6627B00DA11DF9
:10079000661F829F2227B00DA11D621F739FB00D9F
:1007A000A11D621F839FA00D611D221F749F33270F
:1007B000A00D611D231F849F600D211D822F762FA8
:1007C0006A2F11249F5750409AF0F1F088234AF085
:1007D000EE0FFF1FBB1F661F771F881F91505040F1
:1007E000A9F79E3F510580F00C944D030C9498039B
:1007F0005F3FE4F3983ED4F3869577956795B79578
:10080000F795E7959F5FC1F7FE2B880F911D969591
:0A081000879597F90895F894FFCF3B
:10081A00010000B442000001000000B442000001DF
:10082A00000000B442000001000000B442000000D1
:10083A00000000B442000000000000BE42000001B7
:0A084A0000000080BF000000000065
:00000001FF
