S00A000076312E7372656373
S11300000C945A000C9477000C9477000C942901FA
S11300100C9477000C9477000C9477000C94770080
S11300200C9477000C9477000C9477000C94F200F5
S11300300C9477000C9477000C94B7010C9477001F
S11300400C9477000C9477000C9477000C94770050
S11300500C9477000C9477000C9477000C94770040
S11300600C9477000C9477000C9477000C94770030
S11300700C9477000C9477000C9477000C94770020
S11300800C9477000C9477000C9477000C94770010
S11300900C9477000C9477000C9477000C94770000
S11300A00C9477000C9477000C9477000C947700F0
S11300B00C94770011241FBECFEFD8E0DEBFCDBF74
S11300C011E0A0E0B1E0E0EAF6E002C005900D9294
S11300D0A032B107D9F721E0A0E2B1E001C01D923E
S11300E0A732B207E1F70E94DD010C944E030C9491
S11300F000008AB1877F8AB98BB1877F8BB9E9E623
S1130100F0E080818160808380818D7F80838DB3E6
S113011081608DBB089584B1876084B984B1877F81
S113012084B985B1896085B985B18B7F85B987B17B
S1130130806387B988B18F7C88B982E88093800016
S11301408AE180938100EFE6F0E080818260808321
S1130150EBE6F0E0808188608083E8E6F0E080816F
S1130160816080838FEC97E0909387008093860072
S113017087EE93E0909389008093880078940895A3
S113018020E030E044EB53E40E94E80120E030E05A
S113019048EC54E40E94E1020E945A02CB01089503
S11301A00F931F93CF93DF9300E010E013C0E80197
S11301B0CC0FDD1FCC0FDD1FCC0FDD1FC050DF4F78
S11301C0688179818A819B810E94C0009D838C8390
S11301D00F5F1F4F0430110554F3DF91CF911F912E
S11301E00F9108951F920F920FB60F9211242F931F
S11301F03F938F939F93EF93FF938091230190916B
S1130200240101969093240180932301E09121011C
S1130210F0912201EE0FFF1FEE0FFF1FEE0FFF1FE5
S1130220E050FF4F24813581809123019091240176
S1130230821793071CF081E080932001FF91EF91D6
S11302409F918F913F912F910F900FBE0F901F9010
S113025018951F920F920FB60F9211248F938091CD
S11302602001843019F083E0809320018F910F9056
S11302700FBE0F901F90189580912001823021F1BC
S113028018F4813041F00895833009F44EC084306D
S113029009F45CC00895E0E8F0E080818F77808302
S11302A088EE93E00E94CE01882309F452C0809125
S11302B021019091220101969093220180932101C2
S11302C082E0809320010895809121019091220180
S11302D004973CF51092240110922301109285009A
S11302E010928400E0E8F0E0808180688083E091EF
S11302F02101F0912201EE0FFF1FEE0FFF1FEE0F01
S1130300FF1FE050FF4F86819781019721F485B14B
S11303108E7F85B903C085B1816085B910922001B3
S1130320089584E08093200108951B9B09C082E016
S113033080932001E0E8F0E0808180688083089564
S1130340E0E8F0E080818F778083089585B1846050
S113035085B9089582E084BD83E085BD89EF87BDBA
S1130360EEE6F0E0808182608083789408951F92A5
S11303700F920FB60F9211248F939F9380912501B2
S113038090912601019690932601809325019F91D7
S11303908F910F900FBE0F901F90189520912501FB
S11303A0309126012817390730F010922601109257
S11303B0250181E0089580E008950E94D0000E9404
S11303C079000E94AA010E948B000E943C01FDCF8B
S11303D00E94FC010C94A7020E94A00258F00E9403
S11303E0990240F029F45F3F29F00C9490025111D6
S11303F00C94DB020C9496020E94B80268F39923D1
S1130400B1F3552391F3951B550BBB27AA2762170C
S11304107307840738F09F5F5F4F220F331F441F19
S1130420AA1FA9F335D00E2E3AF0E0E832D091504D
S11304305040E695001CCAF72BD0FE2F29D0660F3A
S1130440771F881FBB1F261737074807AB07B0E87D
S113045009F0BB0B802DBF01FF2793585F4F3AF083
S11304609E3F510578F00C9490020C94DB025F3FA0
S1130470E4F3983ED4F3869577956795B795F79509
S11304809F5FC9F7880F911D9695879597F90895F1
S1130490E1E0660F771F881FBB1F6217730784078D
S11304A0BA0720F0621B730B840BBA0BEE1F88F79C
S11304B0E09508950E9461026894B1110C94DB02E6
S11304C008950E94C00288F09F5798F0B92F992789
S11304D0B751B0F0E1F0660F771F881F991F1AF02B
S11304E0BA95C9F714C0B13091F00E94DA02B1E0B4
S11304F008950C94DA02672F782F8827B85F39F0B3
S1130500B93FCCF3869577956795B395D9F73EF4C3
S113051090958095709561957F4F8F4F9F4F08956B
S113052097F99F6780E870E060E008959FEF80ECA2
S1130530089500240A941616170618060906089545
S113054000240A9412161306140605060895092EAB
S11305500394000C11F4882352F0BB0F40F4BF2B1A
S113056011F460FF04C06F5F7F4F8F4F9F4F08955A
S113057057FD9058440F551F59F05F3F71F0479550
S1130580880F97FB991F61F09F3F79F08795089535
S1130590121613061406551FF2CF4695F1DF08C054
S11305A0161617061806991FF1CF86957105610571
S11305B008940895E894BB2766277727CB0197F919
S11305C008950E94F4020C94A7020E94990238F044
S11305D00E94A00220F0952311F00C9490020C9438
S11305E0960211240C94DB020E94B80270F3959FCA
S11305F0C1F3950F50E0551F629FF001729FBB2716
S1130600F00DB11D639FAA27F00DB11DAA1F649FB1
S11306106627B00DA11D661F829F2227B00DA11D64
S1130620621F739FB00DA11D621F839FA00D611DEA
S1130630221F749F3327A00D611D231F849F600D0B
S1130640211D822F762F6A2F11249F5750409AF034
S1130650F1F088234AF0EE0FFF1FBB1F661F771FC0
S1130660881F91505040A9F79E3F510580F00C948B
S113067090020C94DB025F3FE4F3983ED4F386953A
S113068077956795B795F795E7959F5FC1F7FE2B2B
S1130690880F911D9695879597F90895F894FFCF43
S11306A00000344400000000000034440000010055
S11306B00000344400000000000034440000010045
S9030000FC
