S00A000076312E7372656373
S11300000C945A000C9477000C9477000C946907B4
S11300100C9477000C94AC070C9477000C94770044
S11300200C9477000C9477000C9477000C94910551
S11300300C9477000C9477000C9477000C94770060
S11300400C9477000C9477000C9477000C94770050
S11300500C9477000C9477000C9477000C94770040
S11300600C9477000C9477000C9477000C94770030
S11300700C9477000C9477000C9477000C94770020
S11300800C9477000C940F070C9477000C94770071
S11300900C9477000C9477000C9477000C94770000
S11300A00C9477000C9477000C9479000C947700EE
S11300B00C94770011241FBECFEFD8E0DEBFCDBF74
S11300C011E0A0E0B1E0E8E7F6E102C005900D928E
S11300D0A83BB107D9F721E0A8EBB1E001C01D921C
S11300E0AA3CB207E1F70E9407090C943A0B0C945E
S11300F000001F920F9200905F000F9211242F9323
S11301003F938F939F93EF93FF93CF93DF93CDB759
S1130110DEB78091B8019091B90101969093B9012D
S11301208093B8018091BD01282F30E0C901880F68
S1130130991F820F931F880F991F880F991F8F573C
S11301409E4FFC01808191819C018091B801909126
S1130150B90182179307C0F080EA90E020EA30E00A
S1130160F90120812F77FC01208382E790E022E7C8
S113017030E0F90120812D7FFC01208381E0809310
S1130180BC0183E0809300010000DF91CF91FF91D7
S1130190EF919F918F913F912F910F9000925F006B
S11301A00F901F901895CF93DF93CDB7DEB792C011
S11301B080910001882F90E08130910559F08230C0
S11301C091050CF487C08230910569F1039709F415
S11301D05CC080C01092B9011092B80184EA90E02A
S11301E0FC01118210828091BD01282F30E0C901E9
S11301F0880F991F820F931F880F991F880F991FCB
S11302008F579E4F28EE3DEFFC013183208380EA17
S113021090E020EA30E0F90120812068FC0120838D
S11302201092000157C08BE290E02BE230E0F9011C
S11302302081277FFC0120831092B9011092B8011C
S113024084EA90E0FC01118210828091BD01282F84
S113025030E0C901880F991F820F931F880F991FDF
S1130260880F991F8F579E4F20E335E7FC01318398
S113027020838DE690E02DE630E0F90120812F7790
S1130280FC0120831092000125C082E790E022E760
S113029030E0F90120812D7FFC01208380EA90E089
S11302A020EA30E0F90120812F77FC0120838DE6DC
S11302B090E02DE630E0F90120812068FC012083E4
S11302C081E08093BB011092BA011092B90110929F
S11302D0B80100008091BB01882309F469CF0000B4
S11302E0DF91CF910895CF93DF93CDB7DEB780919F
S11302F0BA01882F90E08130910561F08230910538
S11303000CF474C08230910509F449C0039709F4D0
S113031063C06DC01092B9011092B80184EA90E0F4
S1130320FC01118210828091BD01282F30E0C901A7
S1130330880F991F820F931F880F991F880F991F89
S11303408D579E4FFC0180819181019751F48BE27E
S113035090E02BE230E0F9012081277FFC0120832B
S113036009C08BE290E02BE230E0F90120812860A3
S1130370FC0120831092BA0182E790E022E730E08A
S1130380F90120812260FC01208380EA90E020EAC8
S113039030E0F90120812068FC01208328C089E233
S11303A090E0FC01808188236CF481E08093BA01A1
S11303B080EA90E020EA30E0F90120812068FC0125
S11303C0208315C080EA90E020EA30E0F901208122
S11303D02F77FC0120830BC08BE290E02BE230E00E
S11303E0F90120812064FC01208301C00000000089
S11303F0DF91CF910895CF93DF93CDB7DEB789EC2A
S113040090E0FC01108284E290E024E230E0F90103
S113041020812360FC01208384E290E024E230E028
S1130420F90120812B7FFC0120838AE290E02AE2FB
S113043030E0F90120812061FC01208385E290E015
S113044025E230E0F90120812160FC0120838BE268
S113045090E02BE230E0F90120812F7EFC01208323
S113046085E290E025E230E0F90120812460FC017E
S1130470208387E290E027E230E0F90120812360C5
S1130480FC01208388E290E028E230E0F901208139
S11304902C7FFC01208380E890E022E8FC0120838B
S11304A081E890E02AE1FC0120838FE690E02FE6CA
S11304B030E0F90120812260FC0120838BE690E08A
S11304C02BE630E0F90120812460FC01208388E6DA
S11304D090E028E630E0F90120812160FC012083CE
S11304E086E890E02FEC37E0FC013183208388E834
S11304F090E027EE33E0FC01318320837894000000
S1130500DF91CF910895CF93DF93CDB7DEB784E227
S113051090E024E230E0F9012081277FFC01208370
S11305208AE290E02AE230E0F90120812560FC01B2
S113053020838AE290E02AE230E0F90120812062FF
S1130540FC01208385E290E025E230E0F90120817E
S11305502860FC0120838BE290E02BE230E0F9017B
S113056020812460FC0120838BE290E02BE230E0C8
S1130570F90120812F7DFC01208387E290E027E2AE
S113058030E0F90120812C60FC01208388E290E0B6
S113059028E230E0F9012081237FFC01208380E9F7
S11305A090E022E8FC01208381E990E02AE1FC014B
S11305B0208381E790E021E730E0F9012081226087
S11305C0FC0120838BE690E02BE630E0F9012081EA
S11305D02860FC01208386E990E02FE534E0FC01EB
S11305E03183208388E990E027EE33E0FC013183F6
S11305F0208378940000DF91CF910895CF93DF9307
S1130600CDB7DEB78AE290E02AE230E0F90120813A
S11306102A60FC0120838AE290E02AE230E0F901BA
S113062020812064FC0120838AE290E02AE230E009
S1130630F90120812F77FC0120838BE290E02BE2EB
S113064030E0F90120812068FC0120838BE290E0F6
S11306502BE230E0F90120812860FC0120838BE249
S113066090E02BE230E0F90120812F7BFC01208314
S113067087E290E027E230E0F90120812066FC0166
S1130680208388E290E028E230E0F90120812F7B8A
S1130690FC01208388E290E028E230E0F901208127
S11306A02062FC01208380EA90E022E8FC012083A0
S11306B081EA90E02AE1FC01208382E790E022E7CE
S11306C030E0F90120812260FC01208386EA90E079
S11306D028EE33E0FC013183208388EA90E024EFA4
S11306E031E0FC01318320838DE690E02DE630E09B
S11306F0F90120812068FC01208388E690E028E647
S113070030E0F90120812460FC012083789400000A
S1130710DF91CF910895CF93DF9300D000D0CDB770
S1130720DEB769837A838B839C8320E030E044EBDB
S113073053E469817A818B819C810E94AB09DC013D
S1130740CB0120E030E344EB55E4BC01CD010E9431
S1130750CD0ADC01CB01BC01CD010E941D0ADC01E4
S1130760CB010F900F900F900F90DF91CF910895D0
S1130770CF93DF9300D000D0CDB7DEB769837A83FF
S11307808B839C8320E030E044EB53E469817A81DD
S11307908B819C810E94AB09DC01CB0120E030EA13
S11307A04EE156E4BC01CD010E94CD0ADC01CB012F
S11307B0BC01CD010E941D0ADC01CB010F900F90FA
S11307C00F900F90DF91CF910895CF93DF9300D0D6
S11307D000D0CDB7DEB769837A838B839C8320E016
S11307E030E048E751E469817A818B819C810E94E1
S11307F0AB09DC01CB0120E030E64AE657E4BC015A
S1130800CD010E94CD0ADC01CB01BC01CD010E94C7
S11308101D0ADC01CB010F900F900F900F90DF9118
S1130820CF9108950F931F93CF93DF9300D000D0FF
S1130830CDB7DEB79C838B831A82198232C029819B
S11308403A81C901880F991F820F931F880F991F3E
S1130850880F991F9C018B819C818C01020F131FAF
S113086029813A81C901880F991F820F931F880F2C
S1130870991F880F991F9C018B819C81820F931F64
S1130880FC0180819181A281B381BC01CD010E94D0
S11308908B03F8019187808789819A8101969A83D5
S11308A0898329813A81C901880F991F820F931F77
S11308B0880F991F880F991F9C018B819C81820F3F
S11308C0931FFC0180819181A281B38120E030E0FB
S11308D040E85FEBBC01CD010E94A609882309F022
S11308E0AECF89819A8101970F900F900F900F904E
S11308F0DF91CF911F910F9108950F931F93CF9381
S1130900DF9300D000D0CDB7DEB79C838B831A82EF
S1130910198232C029813A81C901880F991F820F37
S1130920931F880F991F880F991F9C018B819C81AD
S11309308C01020F131F29813A81C901880F991F65
S1130940820F931F880F991F880F991F9C018B8119
S11309509C81820F931FFC0180819181A281B381CC
S1130960BC01CD010E94B803F80191878087898179
S11309709A8101969A83898329813A81C901880FD2
S1130980991F820F931F880F991F880F991F9C012D
S11309908B819C81820F931FFC0180819181A281B4
S11309A0B38120E030E040E85FEBBC01CD010E9460
S11309B0A609882309F0AECF89819A8101970F9007
S11309C00F900F900F90DF91CF911F910F91089589
S11309D00F931F93CF93DF9300D000D0CDB7DEB732
S11309E09C838B831A82198232C029813A81C9017E
S11309F0880F991F820F931F880F991F880F991FC3
S1130A009C018B819C818C01020F131F29813A81E7
S1130A10C901880F991F820F931F880F991F880F90
S1130A20991F9C018B819C81820F931FFC018481FF
S1130A309581A681B781BC01CD010E94E503F8012F
S1130A409187808789819A8101969A8389832981F4
S1130A503A81C901880F991F820F931F880F991F2C
S1130A60880F991F9C018B819C81820F931FFC012D
S1130A7084819581A681B78120E030E040E85FEB76
S1130A80BC01CD010E94A609882309F0AECF89815B
S1130A909A8101970F900F900F900F90DF91CF9153
S1130AA01F910F910895CF93DF93CDB7DEB7809157
S1130AB0C201882361F18091C801882341F18091AA
S1130AC0BC01882321F19091BD018091C90198173F
S1130AD078F48091BD018F5F8093BD0181E08093A4
S1130AE0C00181E08093C60181E08093BA0109C00E
S1130AF083E08093C00183E08093C60183E0809308
S1130B00BA011092C2011092C8011092BC010E9455
S1130B1083060E9479080E9473010000DF91CF913F
S1130B2008951F920F9200905F000F9211242F934B
S1130B303F938F939F93EF93FF93CF93DF93CDB71F
S1130B40DEB78091BE019091BF0101969093BF01E1
S1130B508093BE018091BD01282F30E0C901880F28
S1130B60991F820F931F880F991F880F991F875F02
S1130B709E4FFC01208131818091BE019091BF0183
S1130B8082179307C4F080E890E020E830E0F90190
S1130B9020812F77FC0120838FE690E02FE630E060
S1130BA0F90120812D7FFC01208381E08093C20123
S1130BB083E08093B5010000DF91CF91FF91EF9125
S1130BC09F918F913F912F910F9000925F000F9012
S1130BD01F901895CF93DF93CDB7DEB78BE290E0EB
S1130BE02BE230E0F90120812062FC01208382C0E5
S1130BF08091B501882F90E08130910559F08230C1
S1130C0091050CF477C08230910579F1039709F4CA
S1130C105EC070C01092BF011092BE011092BD015F
S1130C208091BD01282F30E0C901880F991F820FE0
S1130C30931F880F991F880F991F875F9E4F26E87F
S1130C4036E1FC013183208384E890E0FC011182C9
S1130C50108280E890E020E830E0F90120812068EB
S1130C60FC0120831092B50145C085E290E025E2A5
S1130C7030E0F90120812E7FFC0120831092BF0116
S1130C801092BE018091BD01282F30E0C901880F68
S1130C90991F820F931F880F991F880F991F875FD1
S1130CA09E4F20E837E0FC013183208384E890E004
S1130CB0FC01118210828BE690E02BE630E0F90112
S1130CC020812B7FFC0120831092B50113C08BE699
S1130CD090E02BE630E0F90120812460FC012083C0
S1130CE081E08093C1011092BF011092BE01109265
S1130CF0C00100008091C101882309F479CF00006C
S1130D00DF91CF910895CF93DF93CDB7DEB7809174
S1130D10C001882F90E08130910561F08230910507
S1130D200CF478C08230910509F449C0039709F4A2
S1130D3067C071C01092BF011092BE0184E890E0B8
S1130D40FC01118210828091BD01282F30E0C9017D
S1130D50880F991F820F931F880F991F880F991F5F
S1130D60855F9E4FFC0180819181019751F485E25A
S1130D7090E025E230E0F90120812E7FFC01208300
S1130D8009C085E290E025E230E0F901208121608C
S1130D90FC0120831092C0018FE690E02FE630E042
S1130DA0F90120812260FC01208380E890E020E8A2
S1130DB030E0F90120812068FC0120832CC083E20B
S1130DC090E0FC018081882F90E084709927892B22
S1130DD069F081E08093C00180E890E020E830E091
S1130DE0F90120812068FC01208315C080E890E08F
S1130DF020E830E0F90120812F77FC0120830BC02B
S1130E008BE290E02BE230E0F90120812061FC01CB
S1130E10208301C000000000DF91CF9108951F924C
S1130E200F9200905F000F9211242F933F938F93A2
S1130E309F93EF93FF93CF93DF93CDB7DEB780916A
S1130E40C3019091C40101969093C4018093C3019E
S1130E508091BD01282F30E0C901880F991F820FAE
S1130E60931F880F991F880F991F8B5B9E4FFC015E
S1130E70808191819C018091C3019091C40182176A
S1130E809307C0F080E990E020E930E0F901208187
S1130E902F77FC01208381E790E021E730E0F9011E
S1130EA020812D7FFC01208381E08093C80183E0B1
S1130EB08093B6010000DF91CF91FF91EF919F9154
S1130EC08F913F912F910F9000925F000F901F9090
S1130ED018951F920F9200905F000F9211248F9328
S1130EE09F93EF93FF93CF93DF93CDB7DEB783E266
S1130EF090E0FC018081882F90E084709927892BF1
S1130F0051F08091C001843031F082E08093C001BF
S1130F1082E08093B50183E290E0FC018081882F18
S1130F2090E088709927892B51F08091C601843014
S1130F3031F083E08093C60182E08093B601000023
S1130F40DF91CF91FF91EF919F918F910F9000923C
S1130F505F000F901F9018951F920F9200905F00F2
S1130F600F9211248F939F93EF93FF93CF93DF936B
S1130F70CDB7DEB789E290E0FC018081882354F488
S1130F808091BA01843031F083E08093BA0182E029
S1130F90809300010000DF91CF91FF91EF919F9129
S1130FA08F910F9000925F000F901F901895CF9330
S1130FB0DF93CDB7DEB794C08091B601882F90E05F
S1130FC08130910559F0823091050CF489C082304A
S1130FD0910579F1039709F45EC082C01092C401AF
S1130FE01092C30184E990E0FC01118210821092F6
S1130FF0C5018091C501282F30E0C901880F991FD0
S1131000820F931F880F991F880F991F8B5B9E4F28
S113101028EA37E2FC013183208380E990E020E96B
S113102030E0F90120812068FC0120831092B60190
S113103057C08BE290E02BE230E0F90120812B7F56
S1131040FC0120831092C4011092C30184E990E052
S1131050FC01118210828091C501282F30E0C90162
S1131060880F991F820F931F880F991F880F991F4C
S11310708B5B9E4F28E33DE0FC01318320838BE6AC
S113108090E02BE630E0F90120812F7EFC012083E3
S11310901092B60125C081E790E021E730E0F90124
S11310A020812D7FFC01208380E990E020E930E05D
S11310B0F90120812F77FC0120838BE690E02BE659
S11310C030E0F90120812061FC01208381E08093DC
S11310D0C7011092C6011092C4011092C30100000E
S11310E08091C701882309F467CF0000DF91CF9175
S11310F00895CF93DF93CDB7DEB78091C601882FD3
S113110090E08130910561F0823091050CF47AC051
S11311108230910509F44BC0039709F469C073C088
S11311201092C4011092C3011092C80184E990E0A6
S1131130FC01118210828091BD01282F30E0C90189
S1131140880F991F820F931F880F991F880F991F6B
S1131150895B9E4FFC0180819181019751F48BE260
S113116090E02BE230E0F90120812B7FFC01208309
S113117009C08BE290E02BE230E0F9012081246089
S1131180FC0120831092C60181E790E021E730E062
S1131190F90120812260FC01208380E990E020E9AC
S11311A030E0F90120812068FC0120832CC083E217
S11311B090E0FC018081882F90E088709927892B2A
S11311C069F081E08093C60180E990E020E930E095
S11311D0F90120812068FC01208315C080E990E09A
S11311E020E930E0F90120812F77FC0120830BC036
S11311F08BE290E02BE230E0F90120812062FC01D7
S1131200208301C000000000DF91CF910895CF93A7
S1131210DF93CDB7DEB72E970FB6F894DEBF0FBEBF
S1131220CDBF81E091E00E9412048093C9018DE357
S113123091E00E947D0489E791E00E94E8040E9405
S1131240FB010E94EA050E9483020E94D7070E94C4
S1131250FE020E94D30080E090E0AAEFB4E4898308
S11312609A83AB83BC8320E030E04AE753E469818E
S11312707A818B819C810E94CD0ADC01CB018D8314
S11312809E83AF83B88720E030E040E85FE36D8160
S11312907E818F8198850E94A60988232CF481E0A1
S11312A090E09A8789873FC020E03FEF4FE757E4FB
S11312B06D817E818F8198850E94C80A18164CF52D
S11312C020E030E040E251E469817A818B819C81A5
S11312D00E94CD0ADC01CB01BC01CD010E94240A8D
S11312E0DC01CB019A8789870FC089E190E09C8754
S11312F08B878B859C850197F1F79C878B878985E4
S11313009A8501979A87898789859A85892B69F7B0
S113131014C06D817E818F8198850E94240ADC012E
S1131320CB019A87898789859A859E878D878D8544
S11313309E850197F1F79E878D870E94FB010E948D
S113134083020E94FE020E945305FDCF0E94530AAD
S113135008F481E008950E94BF090C948E0A0E944B
S1131360870A58F00E94800A40F029F45F3F29F070
S11313700C94770A51110C94C20A0C947D0A0E94B1
S11313809F0A68F39923B1F3552391F3951B550BE9
S1131390BB27AA2762177307840738F09F5F5F4F44
S11313A0220F331F441FAA1FA9F335D00E2E3AF083
S11313B0E0E832D091505040E695001CCAF72BD09B
S11313C0FE2F29D0660F771F881FBB1F26173707EC
S11313D04807AB07B0E809F0BB0B802DBF01FF271E
S11313E093585F4F3AF09E3F510578F00C94770A7A
S11313F00C94C20A5F3FE4F3983ED4F38695779544
S11314006795B795F7959F5FC9F7880F911D9695D6
S1131410879597F90895E1E0660F771F881FBB1F32
S1131420621773078407BA0720F0621B730B840BDF
S1131430BA0BEE1F88F7E09508950E94240A689479
S1131440B1110C94C20A08950E94A70A88F09F570C
S113145098F0B92F9927B751B0F0E1F0660F771FD4
S1131460881F991F1AF0BA95C9F714C0B13091F0CA
S11314700E94C10AB1E008950C94C10A672F782F25
S11314808827B85F39F0B93FCCF38695779567958F
S1131490B395D9F73EF490958095709561957F4FFB
S11314A08F4F9F4F0895990F0008550FAA0BE0E83E
S11314B0FEEF16161706E807F907C0F01216130612
S11314C0E407F50798F0621B730B840B950B39F452
S11314D00A2661F0232B242B252B21F408950A26B8
S11314E009F4A140A6958FEF811D811D089597F9F8
S11314F09F6780E870E060E008959FEF80EC0895B6
S113150000240A94161617061806090608950024DE
S11315100A9412161306140605060895092E039458
S1131520000C11F4882352F0BB0F40F4BF2B11F4CC
S113153060FF04C06F5F7F4F8F4F9F4F089557FD2B
S11315409058440F551F59F05F3F71F04795880F2D
S113155097FB991F61F09F3F79F0879508951216C4
S113156013061406551FF2CF4695F1DF08C0161670
S113157017061806991FF1CF869571056105089421
S11315800895E894BB2766277727CB0197F9089538
S11315900E94530A08F48FEF08950E94E00A0C9405
S11315A08E0A0E94800A38F00E94870A20F0952350
S11315B011F00C94770A0C947D0A11240C94C20A3D
S11315C00E949F0A70F3959FC1F3950F50E0551F39
S11315D0629FF001729FBB27F00DB11D639FAA2784
S11315E0F00DB11DAA1F649F6627B00DA11D661FD3
S11315F0829F2227B00DA11D621F739FB00DA11DF4
S1131600621F839FA00D611D221F749F3327A00DAD
S1131610611D231F849F600D211D822F762F6A2F49
S113162011249F5750409AF0F1F088234AF0EE0FAE
S1131630FF1FBB1F661F771F881F91505040A9F7DB
S11316409E3F510580F00C94770A0C94C20A5F3FC8
S1131650E4F3983ED4F3869577956795B795F79517
S1131660E7959F5FC1F7FE2B880F911D969587958F
S10B167097F90895F894FFCFE7
S1131678010000204100000000000001000000B447
S11316884200000000000000000000B44200000016
S113169800000001000000B4420000000000000146
S11316A800000080BF0000000000000000000020CF
S11316B8410000000000000100CDCCCC3D0000003A
S11316C80000000000CDCCCC3D000000000000006C
S11316D800CDCCCC3D0000000000000000000080DC
S11316E8BF0000000000000000000000000000A08F
S11316F84000000100000000000000A040000001BC
S1131708000000000000002041000000000000006C
S1131718000000A04000000100000000000000805C
S10B1728BF00000000010100F4
S9030000FC
