S00A000076312E7372656373
S11300000C945A000C9477000C9477000C94DB0247
S11300100C9477000C9477000C9477000C94770080
S11300200C9477000C9477000C9477000C94810165
S11300300C9477000C9477000C94DC030C947700F8
S11300400C9477000C9477000C9477000C94770050
S11300500C9477000C9477000C9477000C94770040
S11300600C9477000C9477000C9477000C94770030
S11300700C9477000C9477000C9477000C94770020
S11300800C9477000C94A2020C9477000C947700E3
S11300900C9477000C9477000C9477000C94770000
S11300A00C9477000C9477000C9477000C947700F0
S11300B00C94770011241FBECFEFD8E0DEBFCDBF74
S11300C011E0A0E0B1E0ECE6FBE002C005900D9287
S11300D0A233B107D9F721E0A2E3B1E001C01D9238
S11300E0A134B207E1F70E94F3030C94B4050C9415
S11300F0000084B1836084B984B18B7F84B98AB1F0
S113010080618AB985B1816085B98BB18F7E8BB9E5
S113011085B1846085B987B1836087B988B18C7FE4
S113012088B982E8809380008AE180938100EFE6B9
S1130130F0E0808182608083EBE6F0E0808184607F
S11301408083E8E6F0E08081816080838FEC97E033
S1130150909387008093860087EE93E090938900C4
S1130160809388007894089584B1877F84B98AB194
S113017085608AB98AB180628AB985B1886085B997
S11301808BB184608BB98BB18F7D8BB987B18C6057
S113019087B988B1837F88B982E8809390008AE127
S11301A080939100E1E7F0E0808182608083EBE658
S11301B0F0E0808188608083E8E6F0E080818160FF
S11301C080838FE594E0909397008093960087EE68
S11301D093E090939900809398007894089520E098
S11301E030E044EB53E40E942A0420E030E344EB83
S11301F055E40E9447050E949C04CB01089520E029
S113020030E044EB53E40E942A0420E030EA4EE15B
S113021056E40E9447050E949C04CB0108958F92E6
S11302209F92AF92BF92EF92FF920F931F93CF933F
S1130230DF937C0100E010E008C0C501B4010E9416
S1130240EF009D838C830F5F1F4FE801CC0FDD1FF0
S1130250CC0FDD1FCC0FDD1FCE0DDF1D88809980F4
S1130260AA80BB8020E030E040E85FEBC501B40128
S11302700E9425048111E1CFC801DF91CF911F9124
S11302800F91FF90EF90BF90AF909F908F90089543
S11302908F929F92AF92BF92EF92FF920F931F9310
S11302A0CF93DF937C0100E010E008C0C501B401E6
S11302B00E94FF009D838C830F5F1F4FE801CC0FCA
S11302C0DD1FCC0FDD1FCC0FDD1FCE0DDF1D8880A1
S11302D09980AA80BB8020E030E040E85FEBC50154
S11302E0B4010E9425048111E1CFC801DF91CF91AF
S11302F01F910F91FF90EF90BF90AF909F908F90C0
S113030008951F920F920FB60F9211242F933F93CB
S11303108F939F93EF93FF938091360190913701D0
S113032001969093370180933601E0913401F09166
S11303303501EE0FFF1FEE0FFF1FEE0FFF1FE85EEC
S1130340FE4F2481358180913601909137018217C7
S1130350930734F081E08093330183E0809330018C
S1130360FF91EF919F918F913F912F910F900FBE2D
S11303700F901F9018958BB180628BB972C08091D9
S11303803001823051F1833009F44AC0813009F0E0
S113039068C0109237011092360110923501109204
S11303A03401E0913401F0913501EE0FFF1FEE0F9F
S11303B0FF1FEE0FFF1FE85EFE4F86E896E1958370
S11303C084831092850010928400E0E8F0E080813C
S11303D0806880831092300144C085B18E7F85B9D6
S11303E01092370110923601E0913401F0913501F9
S11303F0EE0FFF1FEE0FFF1FEE0FFF1FE85EFE4F15
S113040080E897E09583848310928500109284009D
S1130410EBE6F0E080818B7F80831092300121C075
S1130420EFE6F0E080818D7F8083E0E8F0E080817A
S11304308F778083EBE6F0E080818460808381E0C5
S1130440809332018091340190913501019690930B
S113045035018093340110923701109236011092C5
S1130460330180913201882309F489CF0895809162
S11304703301823009F451C0833009F45FC0813004
S113048009F05FC0E0E8F0E080818F778083EFE6D9
S1130490F0E080818D7F808380913F0190E0209106
S11304A0340130913501821793079CF18091340116
S11304B09091350101969093350180933401109207
S11304C037011092360110928500109284008081C9
S11304D082608083E0E8F0E0808180688083E0913E
S11304E03401F0913501EE0FFF1FEE0FFF1FEE0FE9
S11304F0FF1FE85EFE4F86819781019721F485B145
S11305008E7F85B903C085B1816085B910923301AE
S1130510089583E08093330108951A9B09C082E013
S113052080933301E0E8F0E080818068808308955F
S1130530E0E8F0E080818F77808308958BB180615B
S11305408BB908951F920F920FB60F9211242F9317
S11305503F938F939F93EF93FF9380913B019091EF
S11305603C01019690933C0180933B01E0913A0158
S1130570F0E0EE0FFF1FEE0FFF1FEE0FFF1FE05026
S1130580FF4F2481358180913B0190913C0182177A
S1130590930730F081E08093390183E08093310147
S11305A0FF91EF919F918F913F912F910F900FBEEB
S11305B00F901F9018951F920F920FB60F9211244F
S11305C08F931B9B0AC080913901843031F083E002
S11305D08093390182E0809331011A9B09C0809194
S11305E03301843029F082E0809333018093300119
S11305F08F910F900FBE0F901F9018956BC0809134
S11306003101823039F1833009F446C0813009F078
S113061061C010923C0110923B011092950010921F
S1130620940010923A01E0913A01F0E0EE0FFF1FBE
S1130630EE0FFF1FEE0FFF1FE050FF4F88EA97E217
S113064095838483E0E9F0E0808180688083109260
S1130650310140C08BB18B7F8BB910923C01109259
S11306603B011092950010929400E0913A01F0E061
S1130670EE0FFF1FEE0FFF1FEE0FFF1FE050FF4FA7
S113068088E39DE095838483EBE6F0E080818F7EB0
S11306908083109231011EC0E1E7F0E080818D7FFC
S11306A08083F894E0E9F0E080818F778083EBE643
S11306B0F0E080818061808381E080933801109232
S11306C0390110923C0110923B0180913A018F5FF5
S11306D080933A0180913801882309F490CF0895DA
S11306E0809139018230C9F018F4813041F00895C5
S11306F0833009F44CC0843009F45AC00895E0E909
S1130700F0E080818F778083E1E7F0E080818D7F66
S1130710808382E080933901089590913A01809119
S11307204001891780F180913A018F5F80933A01EB
S113073010923C0110923B0110929500109294008B
S1130740E1E7F0E0808182608083E0E9F0E080818D
S113075080688083E0913A01F0E0EE0FFF1FEE0F16
S1130760FF1FEE0FFF1FE050FF4F86819781019717
S113077021F48BB18B7F8BB903C08BB184608BB9AF
S113078010923901089584E08093390108951B9BE8
S113079009C082E080933901E0E9F0E0808180685B
S11307A080830895E0E9F0E080818F778083089565
S11307B08BB180628BB908951F920F920FB60F927E
S11307C011248F939F9380913D0190913E01019656
S11307D090933E0180933D019F918F910F900FBEA6
S11307E00F901F90189588E191E00E940F0180936B
S11307F03F0180E091E00E944801809340010E9403
S113080079000E94BB010E94B4000E94FE022FE7FF
S113081084E89EE1215080409040E1F700C0000050
S113082080E091E00E9448018093400188E191E0DA
S11308300E940F0180933F010E9479000E94B4003E
S11308400E9437020E947003FBCF0E94D20408F476
S113085081E008950E943E040C940D050E94060553
S113086058F00E94FF0440F029F45F3F29F00C94F3
S1130870F60451110C9441050C94FC040E941E05CD
S113088068F39923B1F3552391F3951B550BBB27BB
S1130890AA2762177307840738F09F5F5F4F220F00
S11308A0331F441FAA1FA9F335D00E2E3AF0E0E8F7
S11308B032D091505040E695001CCAF72BD0FE2F41
S11308C029D0660F771F881FBB1F261737074807D5
S11308D0AB07B0E809F0BB0B802DBF01FF2793588D
S11308E05F4F3AF09E3F510578F00C94F6040C9457
S11308F041055F3FE4F3983ED4F386957795679579
S1130900B795F7959F5FC9F7880F911D96958795C1
S113091097F90895E1E0660F771F881FBB1F6217E0
S113092073078407BA0720F0621B730B840BBA0B9E
S1130930EE1F88F7E09508950E94A3046894B1110E
S11309400C94410508950E94260588F09F5798F05D
S1130950B92F9927B751B0F0E1F0660F771F881FC0
S1130960991F1AF0BA95C9F714C0B13091F00E94DA
S11309704005B1E008950C944005672F782F88272F
S1130980B85F39F0B93FCCF3869577956795B39501
S1130990D9F73EF490958095709561957F4F8F4F70
S11309A09F4F0895990F0008550FAA0BE0E8FEEF3A
S11309B016161706E807F907C0F012161306E4071F
S11309C0F50798F0621B730B840B950B39F40A2618
S11309D061F0232B242B252B21F408950A2609F4F6
S11309E0A140A6958FEF811D811D089597F99F67FA
S11309F080E870E060E008959FEF80EC08950024A3
S1130A000A941616170618060906089500240A946F
S1130A1012161306140605060895092E0394000CF5
S1130A2011F4882352F0BB0F40F4BF2B11F460FF84
S1130A3004C06F5F7F4F8F4F9F4F089557FD9058AD
S1130A40440F551F59F05F3F71F04795880F97FB8E
S1130A50991F61F09F3F79F0879508951216130648
S1130A601406551FF2CF4695F1DF08C01616170677
S1130A701806991FF1CF86957105610508940895AC
S1130A80E894BB2766277727CB0197F908950E943E
S1130A905A050C940D050E94FF0438F00E940605C7
S1130AA020F0952311F00C94F6040C94FC0411240A
S1130AB00C9441050E941E0570F3959FC1F3950F98
S1130AC050E0551F629FF001729FBB27F00DB11DCE
S1130AD0639FAA27F00DB11DAA1F649F6627B00D5E
S1130AE0A11D661F829F2227B00DA11D621F739F47
S1130AF0B00DA11D621F839FA00D611D221F749F55
S1130B003327A00D611D231F849F600D211D822F9B
S1130B10762F6A2F11249F5750409AF0F1F08823C2
S1130B204AF0EE0FFF1FBB1F661F771F881F9150EF
S1130B305040A9F79E3F510580F00C94F6040C94A4
S1130B4041055F3FE4F3983ED4F386957795679526
S1130B50B795F795E7959F5FC1F7FE2B880F911D19
S10F0B609695879597F90895F894FFCFB7
S1130B6C00002041000001000000024300000100CD
S1130B7C000080BF000000000000204100000100C4
S1130B8C0000B44200000100000080BF000000001F
S1050B9C010151
S9030000FC
