S00A000076312E7372656373
S11300000C945A000C9477000C9477000C94E7023B
S11300100C9477000C9477000C9477000C94770080
S11300200C9477000C9477000C9477000C94810165
S11300300C9477000C9477000C9407040C947700CC
S11300400C9477000C9477000C9477000C94770050
S11300500C9477000C9477000C9477000C94770040
S11300600C9477000C9477000C9477000C94770030
S11300700C9477000C9477000C9477000C94770020
S11300800C9477000C94AD020C9477000C947700D8
S11300900C9477000C9477000C9477000C94770000
S11300A00C9477000C9477000C9477000C947700F0
S11300B00C94770011241FBECFEFD8E0DEBFCDBF74
S11300C011E0A0E0B1E0E6ECFBE002C005900D9287
S11300D0A232B107D9F721E0A2E2B1E001C01D923A
S11300E0A233B207E1F70E941E040C94E1050C94BC
S11300F0000084B1836084B984B18B7F84B98AB1F0
S113010080618AB985B1816085B98BB18F7E8BB9E5
S113011085B1846085B987B1836087B988B18C7FE4
S113012088B982E8809380008AE180938100EFE6B9
S1130130F0E0808182608083EBE6F0E0808184607F
S11301408083E8E6F0E08081816080838FEC97E033
S1130150909387008093860087EE93E090938900C4
S1130160809388007894089584B1877F84B98AB194
S113017085608AB98AB180628AB985B1886085B997
S11301808BB184608BB98BB18F7D8BB987B18C6057
S113019087B988B1837F88B982E8809390008AE127
S11301A080939100E1E7F0E0808182608083EBE658
S11301B0F0E0808188608083E8E6F0E080818160FF
S11301C080838FE594E0909397008093960087EE68
S11301D093E090939900809398007894089520E098
S11301E030E044EB53E40E94570420E030E344EB56
S11301F055E40E9474050E94C904CB01089520E0CF
S113020030E044EB53E40E94570420E030EA4EE12E
S113021056E40E9474050E94C904CB0108958F928C
S11302209F92AF92BF92EF92FF920F931F93CF933F
S1130230DF937C0100E010E008C0C501B4010E9416
S1130240EF009D838C830F5F1F4FE801CC0FDD1FF0
S1130250CC0FDD1FCC0FDD1FCE0DDF1D88809980F4
S1130260AA80BB8020E030E040E85FEBC501B40128
S11302700E9452048111E1CFC801DF91CF911F91F7
S11302800F91FF90EF90BF90AF909F908F90089543
S11302908F929F92AF92BF92EF92FF920F931F9310
S11302A0CF93DF937C0100E010E008C0C501B401E6
S11302B00E94FF009D838C830F5F1F4FE801CC0FCA
S11302C0DD1FCC0FDD1FCC0FDD1FCE0DDF1D8880A1
S11302D09980AA80BB8020E030E040E85FEBC50154
S11302E0B4010E9452048111E1CFC801DF91CF9182
S11302F01F910F91FF90EF90BF90AF909F908F90C0
S113030008951F920F920FB60F9211242F933F93CB
S11303108F939F93EF93FF938091260190912701F0
S113032001969093270180932601E0912401F09196
S11303302501EE0FFF1FEE0FFF1FEE0FFF1FE05F03
S1130340FE4F2481358180912601909127018217E7
S1130350930734F081E08093230183E080932001AC
S1130360FF91EF919F918F913F912F910F900FBE2D
S11303700F901F9018958BB180628BB973C08091D8
S11303802001823051F1833009F44AC0813009F0F0
S113039069C01092270110922601109285001092D4
S11303A084001092250110922401E0912401F0911F
S11303B02501EE0FFF1FEE0FFF1FEE0FFF1FE05F83
S11303C0FE4F86E896E195838483E0E8F0E080813F
S11303D0806880831092200145C085B18E7F85B9E5
S11303E01092270110922601109285001092840029
S11303F0E0912401F0912501EE0FFF1FEE0FFF1F86
S1130400EE0FFF1FE05FFE4F80E897E09583848343
S1130410EBE6F0E080818B7F80831092200122C084
S1130420EFE6F0E080818D7F8083F894E0E8F0E0EF
S113043080818F778083EBE6F0E080818460808325
S113044081E0809322012FE38DE093E021508040EE
S11304509040E1F700C000001092230110922701A0
S11304601092260180912201882309F488CF0895EF
S1130470809123018230C9F018F4813041F008954D
S1130480833009F455C0843009F463C00895E0E86A
S1130490F0E080818F778083EFE6F0E080818D7FCC
S11304A0808382E08093230108958091300190E05D
S11304B0209124013091250182179307ACF180919A
S11304C024019091250101969093250180932401A4
S11304D01092270110922601109285001092840038
S11304E0EFE6F0E0808182608083E0E8F0E08081E4
S11304F080688083E0912401F0912501EE0FFF1FB5
S1130500EE0FFF1FEE0FFF1FE05FFE4F8681978106
S1130510019721F485B18E7F85B903C085B18160CF
S113052085B910922301089584E0809323010895EE
S11305301A9B09C082E080932301E0E8F0E0808107
S1130540806880830895E0E8F0E080818F7780837D
S113055008958BB180618BB908951F920F920FB6E5
S11305600F9211242F933F938F939F93EF93FF93B5
S113057080912C0190912D01019690932D018093EF
S11305802C01E0912A01F0912B01EE0FFF1FEE0FD9
S1130590FF1FEE0FFF1FE050FF4F24813581809134
S11305A02C0190912D018217930734F081E0809300
S11305B0290183E080932101FF91EF919F918F9115
S11305C03F912F910F900FBE0F901F9018951F927F
S11305D00F920FB60F9211248F931B9B0AC0809128
S11305E02901843031F083E08093290182E08093F3
S11305F021011A9B0AC080912301843031F083E0E9
S11306008093230182E0809320018F910F900FBE8D
S11306100F901F90189573C080912101823051F181
S1130620833009F44AC0813009F069C010922D0169
S113063010922C01109295001092940010922B01AC
S113064010922A01E0912A01F0912B01EE0FFF1F75
S1130650EE0FFF1FEE0FFF1FE050FF4F88EA97E2F7
S113066095838483E0E9F0E0808180688083109240
S1130670210145C08BB18B7F8BB910922D01109253
S11306802C011092950010929400E0912A01F091AF
S11306902B01EE0FFF1FEE0FFF1FEE0FFF1FE050A9
S11306A0FF4F88E39DE095838483EBE6F0E080814F
S11306B08F7E80831092210122C0E1E7F0E08081E7
S11306C08D7F8083F894E0E9F0E080818F778083E8
S11306D0EBE6F0E080818061808381E080932801F3
S11306E02FE38DE093E0215080409040E1F700C07B
S11306F000001092290110922D0110922C0180917A
S11307002801882309F488CF089580912901823033
S1130710C9F018F4813041F00895833009F455C0CC
S1130720843009F463C00895E0E9F0E080818F77B4
S11307308083E1E7F0E080818D7F808382E0809395
S1130740290108958091310190E020912A0130918E
S11307502B0182179307ACF180912A0190912B0110
S1130760019690932B0180932A0110922D011092EF
S11307702C011092950010929400E1E7F0E0808142
S113078082608083E0E9F0E0808180688083E0918A
S11307902A01F0912B01EE0FFF1FEE0FFF1FEE0F4A
S11307A0FF1FE050FF4F86819781019721F48BB1A1
S11307B08B7F8BB903C08BB184608BB910922901F4
S11307C0089584E08093290108951B9B09C082E069
S11307D080932901E0E9F0E08081806880830895B6
S11307E0E0E9F0E080818F77808308958BB18062A7
S11307F08BB9089582E084BD83E085BD89EF87BD10
S1130800EEE6F0E0808182608083789408951F9200
S11308100F920FB60F9211248F939F9380912E0104
S113082090912F01019690932F0180932E019F9117
S11308308F910F900FBE0F901F90189580E191E05B
S11308400E940F018093300180E091E00E944801F2
S1130850809331010E94FA030E9479000E94BB0137
S11308600E94B4000E940B032FE784E89EE121500C
S113087080409040E1F700C0000080E091E00E94D9
S113088048018093310180E191E00E940F0180933F
S113089030010E9479000E94B4000E9438020E9434
S11308A08503FBCF0E94FF0408F481E008950E94B1
S11308B06B040C943A050E94330558F00E942C05F1
S11308C040F029F45F3F29F00C94230551110C9456
S11308D06E050C9429050E944B0568F39923B1F326
S11308E0552391F3951B550BBB27AA276217730752
S11308F0840738F09F5F5F4F220F331F441FAA1FE6
S1130900A9F335D00E2E3AF0E0E832D091505040A1
S1130910E695001CCAF72BD0FE2F29D0660F771F4F
S1130920881FBB1F261737074807AB07B0E809F035
S1130930BB0B802DBF01FF2793585F4F3AF09E3FBA
S1130940510578F00C9423050C946E055F3FE4F395
S1130950983ED4F3869577956795B795F7959F5FFD
S1130960C9F7880F911D9695879597F90895E1E049
S1130970660F771F881FBB1F621773078407BA07A8
S113098020F0621B730B840BBA0BEE1F88F7E09503
S113099008950E94D0046894B1110C946E050895D2
S11309A00E94530588F09F5798F0B92F9927B751A3
S11309B0B0F0E1F0660F771F881F991F1AF0BA95FF
S11309C0C9F714C0B13091F00E946D05B1E00895EB
S11309D00C946D05672F782F8827B85F39F0B93FDD
S11309E0CCF3869577956795B395D9F73EF49095B2
S11309F08095709561957F4F8F4F9F4F0895990F04
S1130A000008550FAA0BE0E8FEEF16161706E807D4
S1130A10F907C0F012161306E407F50798F0621BF5
S1130A20730B840B950B39F40A2661F0232B242BCA
S1130A30252B21F408950A2609F4A140A6958FEFE9
S1130A40811D811D089597F99F6780E870E060E03B
S1130A5008959FEF80EC089500240A941616170653
S1130A6018060906089500240A941216130614069B
S1130A7005060895092E0394000C11F4882352F0FE
S1130A80BB0F40F4BF2B11F460FF04C06F5F7F4FB6
S1130A908F4F9F4F089557FD9058440F551F59F09D
S1130AA05F3F71F04795880F97FB991F61F09F3F57
S1130AB079F087950895121613061406551FF2CF80
S1130AC04695F1DF08C0161617061806991FF1CFD0
S1130AD086957105610508940895E894BB276627F7
S1130AE07727CB0197F908950E9487050C943A055E
S1130AF00E942C0538F00E94330520F0952311F054
S1130B000C9423050C94290511240C946E050E9461
S1130B104B0570F3959FC1F3950F50E0551F629FED
S1130B20F001729FBB27F00DB11D639FAA27F00D42
S1130B30B11DAA1F649F6627B00DA11D661F829F69
S1130B402227B00DA11D621F739FB00DA11D621F4E
S1130B50839FA00D611D221F749F3327A00D611D6B
S1130B60231F849F600D211D822F762F6A2F11244D
S1130B709F5750409AF0F1F088234AF0EE0FFF1F80
S1130B80BB1F661F771F881F91505040A9F79E3FD7
S1130B90510580F00C9423050C946E055F3FE4F33B
S1130BA0983ED4F3869577956795B795F795E7952D
S1130BB09F5FC1F7FE2B880F911D9695879597F936
S1090BC00895F894FFCF34
S1130BC60000F04200000100000080BF00000000A9
S1130BD60000344200000100000080BF0000000055
S1050BE6010107
S9030000FC
