S00A000076312E7372656373
S11300000C945A000C9477000C9477000C947700AD
S11300100C9477000C9477000C9477000C94770080
S11300200C9477000C9477000C9477000C94EB04F8
S11300300C9477000C9477000C9477000C94770060
S11300400C9477000C9477000C9477000C94770050
S11300500C9477000C9477000C9477000C94770040
S11300600C9477000C9477000C9477000C9437066A
S11300700C9477000C9477000C9477000C94770020
S11300800C9477000C94DD050C9477000C947700A5
S11300900C9477000C9477000C9477000C94770000
S11300A00C9477000C9477000C9479000C947700EE
S11300B00C94770011241FBECFEFD8E0DEBFCDBF74
S11300C012E0A0E0B1E0E2EAF4E102C005900D9292
S11300D0AA37B107D9F723E0AAE7B2E001C01D921D
S11300E0AD30B207E1F70E94E7070C944F0A0C9475
S11300F000001F920F9200905F000F9211242F9323
S11301003F938F939F93EF93FF93CF93DF93CDB759
S1130110DEB780917A0290917B02019690937B02E4
S113012080937A0280917F02282F30E0C901880FE2
S1130130991F820F931F880F991F880F991F8F573C
S11301409E4FFC01808191819C0180917A02909163
S11301507B0282179307C0F080EA90E020EA30E047
S1130160F90120812F77FC01208382E790E022E7C8
S113017030E0F90120812D7FFC01208381E0809310
S11301807E0283E0809300010000DF91CF91FF9114
S1130190EF919F918F913F912F910F9000925F006B
S11301A00F901F901895CF93DF93CDB7DEB792C011
S11301B080910001882F90E08130910559F08230C0
S11301C091050CF487C08230910569F1039709F415
S11301D05CC080C010927B0210927A0284EA90E0A4
S11301E0FC011182108280917F02282F30E0C90126
S11301F0880F991F820F931F880F991F880F991FCB
S11302008F579E4F28EE3DEFFC013183208380EA17
S113021090E020EA30E0F90120812068FC0120838D
S11302201092000157C08BE290E02BE230E0F9011C
S11302302081277FFC01208310927B0210927A0296
S113024084EA90E0FC011182108280917F02282FC1
S113025030E0C901880F991F820F931F880F991FDF
S1130260880F991F8F579E4F20E335E7FC01318398
S113027020838DE690E02DE630E0F90120812F7790
S1130280FC0120831092000125C082E790E022E760
S113029030E0F90120812D7FFC01208380EA90E089
S11302A020EA30E0F90120812F77FC0120838DE6DC
S11302B090E02DE630E0F90120812068FC012083E4
S11302C081E080937D0210927C0210927B02109256
S11302D07A02000080917D02882309F469CF00002E
S11302E0DF91CF910895CF93DF93CDB7DEB784E24A
S11302F090E024E230E0F90120812360FC012083B6
S11303008DE290E02DE230E0F90120812B7FFC01A9
S113031020838AE290E02AE230E0F9012081206122
S1130320FC01208385E290E025E230E0F9012081A0
S11303302160FC0120838BE290E02BE230E0F901A4
S113034020812F7EFC0120838EE290E02EE230E0BB
S1130350F90120812460FC01208387E290E027E2F8
S113036030E0F90120812360FC01208388E290E0E1
S113037028E230E0F90120812C7FFC01208380E811
S113038090E022E8FC01208381E890E02AE1FC016E
S113039020838FE690E02FE630E0F901208122608F
S11303A0FC0120838BE390E02BE330E0F901208112
S11303B02860FC01208383E790E023E730E0F90123
S11303C020812460FC01208388E690E028E630E068
S11303D0F90120812860FC01208386E890E02FEC5D
S11303E037E0FC013183208388E890E027EE33E096
S11303F0FC013183208378940000DF91CF9108952C
S1130400CF93DF93CDB7DEB78DE290E02DE230E0FD
S1130410F90120812D7FFC0120838AE290E02AE209
S113042030E0F90120812560FC0120838AE290E01C
S11304302AE230E0F90120812062FC0120838EE26F
S113044090E02EE230E0F90120812260FC0120835B
S11304508BE290E02BE230E0F90120812460FC0182
S113046020838BE290E02BE230E0F90120812F7DA4
S1130470FC01208387E290E027E230E0F90120814B
S11304802C60FC01208388E290E028E230E0F9014E
S11304902081237FFC01208380E990E022E8FC0195
S11304A0208381E990E02AE1FC01208381E790E048
S11304B021E730E0F90120812260FC0120838BE3F5
S11304C090E02BE330E0F90120812860FC012083D7
S11304D083E790E023E730E0F90120812260FC010A
S11304E0208388E690E028E630E0F9012081286046
S11304F0FC01208386E990E02FE534E0FC013183A0
S1130500208388E990E027EE33E0FC0131832083E7
S113051078940000DF91CF910895CF93DF93CDB706
S1130520DEB78AE290E02AE230E0F90120812A6015
S1130530FC0120838AE290E02AE230E0F901208184
S11305402064FC0120838DE290E02DE230E0F9018B
S113055020812E7FFC0120838EE290E02EE230E0A9
S1130560F90120812160FC0120838BE290E02BE2E1
S113057030E0F90120812860FC0120838BE290E0C7
S11305802BE230E0F90120812F7BFC01208387E2FC
S113059090E027E230E0F90120812066FC0120830D
S11305A088E290E028E230E0F90120812F7BFC0111
S11305B0208388E290E028E230E0F9012081206283
S11305C0FC01208380EA90E022E8FC01208381EA98
S11305D090E02AE1FC01208382E790E022E730E00A
S11305E0F90120812260FC01208386EA90E028EE54
S11305F033E0FC013183208388EA90E024EF31E08A
S1130600FC01318320838BE390E02BE330E0F9019C
S113061020812860FC01208383E790E023E730E019
S1130620F90120812160FC01208388E690E028E61E
S113063030E0F90120812860FC01208378940000D7
S1130640DF91CF910895CF93DF9300D000D0CDB741
S1130650DEB769837A838B839C8320E030E044EBAC
S113066053E469817A818B819C810E94C008DC01FA
S1130670CB0120E030E344EB55E4BC01CD010E9402
S1130680E209DC01CB01BC01CD010E943209DC018D
S1130690CB010F900F900F900F90DF91CF910895A1
S11306A0CF93DF9300D000D0CDB7DEB769837A83D0
S11306B08B839C8320E030E044EB53E469817A81AE
S11306C08B819C810E94C008DC01CB0120E030EAD0
S11306D04EE156E4BC01CD010E94E209DC01CB01EC
S11306E0BC01CD010E943209DC01CB010F900F90B7
S11306F00F900F90DF91CF910895CF93DF9300D0A7
S113070000D0CDB7DEB769837A838B839C8320E0E6
S113071030E048E751E469817A818B819C810E94B1
S1130720C008DC01CB0120E030E64AE657E4BC0116
S1130730CD010E94E209DC01CB01BC01CD010E9484
S11307403209DC01CB010F900F900F900F90DF91D5
S1130750CF9108950F931F93CF93DF9300D000D0D0
S1130760CDB7DEB79C838B831A82198232C029816C
S11307703A81C901880F991F820F931F880F991F0F
S1130780880F991F9C018B819C818C01020F131F80
S113079029813A81C901880F991F820F931F880FFD
S11307A0991F880F991F9C018B819C81820F931F35
S11307B0FC0180819181A281B381BC01CD010E94A1
S11307C02303F8019187808789819A8101969A830E
S11307D0898329813A81C901880F991F820F931F48
S11307E0880F991F880F991F9C018B819C81820F10
S11307F0931FFC0180819181A281B38120E030E0CC
S113080040E85FEBBC01CD010E94BB08882309F0DE
S1130810AECF89819A8101970F900F900F900F901E
S1130820DF91CF911F910F9108950F931F93CF9351
S1130830DF9300D000D0CDB7DEB79C838B831A82C0
S1130840198232C029813A81C901880F991F820F08
S1130850931F880F991F880F991F9C018B819C817E
S11308608C01020F131F29813A81C901880F991F36
S1130870820F931F880F991F880F991F9C018B81EA
S11308809C81820F931FFC0180819181A281B3819D
S1130890BC01CD010E945003F801918780878981B2
S11308A09A8101969A83898329813A81C901880FA3
S11308B0991F820F931F880F991F880F991F9C01FE
S11308C08B819C81820F931FFC0180819181A28185
S11308D0B38120E030E040E85FEBBC01CD010E9431
S11308E0BB08882309F0AECF89819A8101970F90C4
S11308F00F900F900F90DF91CF911F910F9108955A
S11309000F931F93CF93DF9300D000D0CDB7DEB702
S11309109C838B831A82198232C029813A81C9014E
S1130920880F991F820F931F880F991F880F991F93
S11309309C018B819C818C01020F131F29813A81B8
S1130940C901880F991F820F931F880F991F880F61
S1130950991F9C018B819C81820F931FFC018481D0
S11309609581A681B781BC01CD010E947D03F80168
S11309709187808789819A8101969A8389832981C5
S11309803A81C901880F991F820F931F880F991FFD
S1130990880F991F9C018B819C81820F931FFC01FE
S11309A084819581A681B78120E030E040E85FEB47
S11309B0BC01CD010E94BB08882309F0AECF898118
S11309C09A8101970F900F900F900F90DF91CF9124
S11309D01F910F9108951F920F9200905F000F9244
S11309E011242F933F938F939F93EF93FF93CF9370
S11309F0DF93CDB7DEB7809180029091810201969A
S1130A00909381028093800280917F02282F30E0AE
S1130A10C901880F991F820F931F880F991F880F90
S1130A20991F875F9E4FFC01208131818091800254
S1130A309091810282179307C4F080E890E020E847
S1130A4030E0F90120812F77FC0120838FE690E0CC
S1130A502FE630E0F90120812D7FFC01208381E025
S1130A608093840283E08093B5010000DF91CF91ED
S1130A70FF91EF919F918F913F912F910F90009251
S1130A805F000F901F901895CF93DF93CDB7DEB71B
S1130A908BE290E02BE230E0F90120812062FC013E
S1130AA0208382C08091B501882F90E08130910528
S1130AB059F0823091050CF477C08230910579F1B8
S1130AC0039709F45EC070C01092810210928002F4
S1130AD010927F0280917F02282F30E0C901880F95
S1130AE0991F820F931F880F991F880F991F875F83
S1130AF09E4F26E836E1FC013183208384E890E0B0
S1130B00FC011182108280E890E020E830E0F901D5
S1130B1020812068FC0120831092B50145C085E244
S1130B2090E025E230E0F90120812E7FFC01208352
S1130B30109281021092800280917F02282F30E06F
S1130B40C901880F991F820F931F880F991F880F5F
S1130B50991F875F9E4F20E837E0FC013183208393
S1130B6084E890E0FC01118210828BE690E02BE691
S1130B7030E0F90120812B7FFC0120831092B50124
S1130B8013C08BE690E02BE630E0F901208124606D
S1130B90FC01208381E080938302109281021092F1
S1130BA0800210928202000080918302882309F45B
S1130BB079CF0000DF91CF9108951F920F9200909A
S1130BC05F000F9211242F933F938F939F93EF9382
S1130BD0FF93CF93DF93CDB7DEB7809185029091D9
S1130BE086020196909386028093850280917F020B
S1130BF0282F30E0C901880F991F820F931F880F97
S1130C00991F880F991F8B5B9E4FFC0180819181F6
S1130C109C01809185029091860282179307C0F00F
S1130C2080E990E020E930E0F90120812F77FC0190
S1130C30208381E790E021E730E0F90120812D7FD6
S1130C40FC01208381E080938A0283E08093B601D3
S1130C500000DF91CF91FF91EF919F918F913F9190
S1130C602F910F9000925F000F901F9018951F9284
S1130C700F9200905F000F9211248F939F93EF9334
S1130C80FF93CF93DF93CDB7DEB78CE290E0FC0106
S1130C908081882F90E084709927892B51F080916E
S1130CA08202843031F082E08093820282E0809379
S1130CB0B5018CE290E0FC018081882F90E0827085
S1130CC09927892B51F080918802843031F083E098
S1130CD08093880282E08093B6018CE290E0FC016C
S1130CE08081882F90E081709927892B51F0809121
S1130CF07C02843031F083E080937C0282E0809334
S1130D0000010000DF91CF91FF91EF919F918F91AE
S1130D100F9000925F000F901F901895CF93DF9370
S1130D20CDB7DEB794C08091B601882F90E08130B2
S1130D30910559F0823091050CF489C082309105F7
S1130D4079F1039709F45EC082C010928602109272
S1130D50850284E990E0FC011182108210928702DE
S1130D6080918702282F30E0C901880F991F820FD4
S1130D70931F880F991F880F991F8B5B9E4F28EA3A
S1130D8037E2FC013183208380E990E020E930E000
S1130D90F90120812068FC0120831092B60157C01C
S1130DA08BE290E02BE230E0F90120812B7FFC0103
S1130DB02083109286021092850284E990E0FC015F
S1130DC01182108280918702282F30E0C901880F98
S1130DD0991F820F931F880F991F880F991F8B5B90
S1130DE09E4F28E33DE0FC01318320838BE690E0B5
S1130DF02BE630E0F90120812F7EFC012083109244
S1130E00B60125C081E790E021E730E0F9012081B7
S1130E102D7FFC01208380E990E020E930E0F90196
S1130E2020812F77FC0120838BE690E02BE630E0D5
S1130E30F90120812061FC01208381E080938902F3
S1130E40109288021092860210928502000080910E
S1130E508902882309F467CF0000DF91CF910895B8
S1130E60CF93DF93CDB7DEB78DEC90E0FC01108219
S1130E708CEC90E027E6FC01208389EC90E028E1EB
S1130E80FC0120838AEC90E026E0FC012083000032
S1130E90DF91CF910895CF93DF93CDB7DEB70000F4
S1130EA088EC90E0FC0180818823D4F78EEC90E0FC
S1130EB0FC018081DF91CF910895CF93DF931F923E
S1130EC0CDB7DEB78983000088EC90E0FC01808117
S1130ED0882F90E080729927892BB1F38EEC90E0F3
S1130EE02981FC01208300000F90DF91CF910895A8
S1130EF0CF93DF9300D0CDB7DEB79A83898314C034
S1130F0089819A81FC0180818A3019F48DE00E94E4
S1130F105D0789819A819C012F5F3F4F3A83298322
S1130F20FC0180810E945D0789819A81FC01808196
S1130F30882331F700000F900F90DF91CF9108952F
S1130F40CF93DF93CDB7DEB727970FB6F894DEBF04
S1130F500FBECDBF9D838C837F836E831A821982DB
S1130F600E944B078B838B818D3019F08B818A30E3
S1130F7059F489819A812C813D81820F931FFC0150
S1130F80108289819A811AC08E819F819C0121508F
S1130F90310989819A818217930714F789819A818B
S1130FA09C012F5F3F4F3A8329839C018C819D8153
S1130FB0820F931F2B81FC012083D2CF27960FB67B
S1130FC0F894DEBF0FBECDBFDF91CF910895CF93CC
S1130FD0DF93CDB7DEB72E970FB6F894DEBF0FBE02
S1130FE0CDBF0E94300781E091E00E94AA03809364
S1130FF00C038DE391E00E94150489E791E00E94BF
S113100080048091B701805D0E945D0788EB91E0C8
S11310100E9478078FED91E00E9478070E94730187
S11310200E94440586E092E00E9478070E94000234
S11310300E948E0681E192E00E9478070E948D0250
S11310400E94D3008CE192E00E94780780E090E057
S1131050AAEFB4E489839A83AB83BC8320E030E0B5
S11310604AE755E469817A818B819C810E94E20977
S1131070DC01CB018D839E83AF83B88720E030E011
S113108040E85FE36D817E818F8198850E94BB0873
S113109088232CF481E090E09A8789873FC020E080
S11310A03FEF4FE757E46D817E818F8198850E94E1
S11310B0DD0918164CF520E030E040E251E4698186
S11310C07A818B819C810E94E209DC01CB01BC0105
S11310D0CD010E943909DC01CB019A8789870FC0B1
S11310E080E991E09C878B878B859C850197F1F73C
S11310F09C878B8789859A8501979A8789878985B3
S11311009A85892B69F714C06D817E818F819885BA
S11311100E943909DC01CB019A87898789859A85E0
S11311209E878D878D859E850197F1F79E878D8794
S113113087E292E00E94780760E870E08BE892E032
S11311400E94A00789E492E00E9478070E9473013C
S11311500E9400020E948D0260E870E08BE892E039
S11311600E94A0078BE892E00E94780787E792E04C
S11311700E947807F1CF0E94680908F481E008957D
S11311800E94D4080C94A3090E949C0958F00E9460
S1131190950940F029F45F3F29F00C948C09511112
S11311A00C94D7090C9492090E94B40968F399230A
S11311B0B1F3552391F3951B550BBB27AA2762174F
S11311C07307840738F09F5F5F4F220F331F441F5C
S11311D0AA1FA9F335D00E2E3AF0E0E832D0915090
S11311E05040E695001CCAF72BD0FE2F29D0660F7D
S11311F0771F881FBB1F261737074807AB07B0E8C0
S113120009F0BB0B802DBF01FF2793585F4F3AF0C5
S11312109E3F510578F00C948C090C94D7095F3FDC
S1131220E4F3983ED4F3869577956795B795F7954B
S11312309F5FC9F7880F911D9695879597F9089533
S1131240E1E0660F771F881FBB1F621773078407CF
S1131250BA0720F0621B730B840BBA0BEE1F88F7DE
S1131260E09508950E9439096894B1110C94D70946
S113127008950E94BC0988F09F5798F0B92F9927C8
S1131280B751B0F0E1F0660F771F881F991F1AF06D
S1131290BA95C9F714C0B13091F00E94D609B1E0F3
S11312A008950C94D609672F782F8827B85F39F0F2
S11312B0B93FCCF3869577956795B395D9F73EF406
S11312C090958095709561957F4F8F4F9F4F0895AE
S11312D0990F0008550FAA0BE0E8FEEF1616170643
S11312E0E807F907C0F012161306E407F50798F0AB
S11312F0621B730B840B950B39F40A2661F0232BC4
S1131300242B252B21F408950A2609F4A140A6953F
S11313108FEF811D811D089597F99F6780E870E024
S113132060E008959FEF80EC089500240A94161657
S1131330170618060906089500240A9412161306BF
S1131340140605060895092E0394000C11F488234D
S113135052F0BB0F40F4BF2B11F460FF04C06F5F69
S11313607F4F8F4F9F4F089557FD9058440F551F3F
S113137059F05F3F71F04795880F97FB991F61F013
S11313809F3F79F087950895121613061406551F8A
S1131390F2CF4695F1DF08C0161617061806991FF6
S11313A0F1CF86957105610508940895E894BB27EB
S11313B066277727CB0197F908950E94680908F4F6
S11313C08FEF08950E94F5090C94A3090E949509D2
S11313D038F00E949C0920F0952311F00C948C099C
S11313E00C94920911240C94D7090E94B40970F347
S11313F0959FC1F3950F50E0551F629FF001729FB6
S1131400BB27F00DB11D639FAA27F00DB11DAA1FC4
S1131410649F6627B00DA11D661F829F2227B00D11
S1131420A11D621F739FB00DA11D621F839FA00D9C
S1131430611D221F749F3327A00D611D231F849FEC
S1131440600D211D822F762F6A2F11249F57504043
S11314509AF0F1F088234AF0EE0FFF1FBB1F661FBE
S1131460771F881F91505040A9F79E3F510580F087
S11314700C948C090C94D7095F3FE4F3983ED4F3A1
S1131480869577956795B795F795E7959F5FC1F72B
S1131490FE2B880F911D9695879597F90895F894DA
S10514A0FFCF78
S11314A2010000204100000000000001000000B41F
S11314B24200000000000000000000B442000000EE
S11314C200000001000000B442000000000000011E
S11314D200000080BF0000000000000000000020A7
S11314E2410000000000000100CDCCCC3D00000012
S11314F20000000000CDCCCC3D0000000000000044
S113150200CDCCCC3D0000000000000000000080B3
S1131512BF0000000000000000000000000000A066
S11315224000000100000000000000A04000000193
S11315320000000000000020410000000000000044
S1131542000000A040000001000000000000008034
S1131552BF000000000101052D2D2D2D2D2D2D2D57
S11315622D2D2D2D2D524F424F5420494E49542D8D
S11315722D2D2D2D2D2D2D2D2D2D2D2D0D0A002D05
S11315822D2D2D2D2D2D2D2D2D2D2D2D2D2D484F48
S11315924D494E472D2D2D2D2D2D2D2D2D2D2D2DFE
S11315A22D2D2D0D0A00513220434845434B0D0A7F
S11315B200513320434845434B0D0A004431204334
S11315C24845434B0D0A0050524553532022454E81
S11315D25445522220544F20494E495449414C49C2
S11315E25A45204D4F560D0A002D2D2D2D2D2D2DF2
S11315F22D2D2D2D2D2D2D2D494E495449414C4132
S1131602495A494E472D2D2D2D2D2D2D2D2D2D2D64
S10D16122D2D2D2D0D0A000D0000F2
S9030000FC
